S00E00004E4F44455F312E7372656360
S11300000C9438000C946D000C9402020C9455006E
S11300100C9455000C9455000C9455000C94550008
S11300200C9455000C9455000C9455000C945500F8
S11300300C9455000C9455000C9455000C945500E8
S11300400C9455000C9455000C9455000C945500D8
S11300500C9455000C9455000C9455000C945500C8
S11300600C9455000C9455000C9455000C945500B8
S113007011241FBECFEFD4E0DEBFCDBF12E0A0E05D
S1130080B1E0EEEBF0E102C005900D92AC32B107A5
S1130090D9F722E0ACE2B2E001C01D92A733B20767
S11300A0E1F70E942E020C945D080C94000082E893
S11300B08FBD89E18EBD85E090E095BD84BD82E071
S11300C090E09BBD8ABD87B38B7F87BB88B3846078
S11300D088BB81B3806281BB08951F920F920FB6D3
S11300E00F9211248F9381E080932C028F910F90B3
S11300F00FBE0F901F901895CF93DF93DC01E90199
S113010011967C936E9312964C93129790E00BC0C9
S1130110692F70E0FE01E60FF71F3081FD01E60F45
S1130120F71F33839F5F941798F3CD01DF91CF912D
S11301300895DF92EF92FF920F931F93CF93DF9373
S11301401F92CDB7DEB77C01D62EFC016081718190
S1130150162F1295110F107E6F717727769567957C
S113016076956795769567950D2D0295007F81E3C9
S1130170800F0E947F02612F82E3800F0E947F0222
S1130180F701628185E3800F0E947F02BE016F5FE9
S11301907F4F80E30E945D02898183FF0CC014C0FD
S11301A0F701E10FF11D6381812F800F8A5C0E94AA
S11301B07F021F5F01C010E0F7018281181780F3EE
S11301C081E88D0D0E9495020F90DF91CF911F91D0
S11301D00F91FF90EF90DF900895CF92DF92FF92FE
S11301E00F931F93CF93DF9300D000D0CDB7DEB72A
S11301F06C01F62EFF0CFF0CFF0CFF0CBE016F5FB1
S11302007F4F82E68F0D0E945D02BE016E5F7F4FBD
S113021081E68F0D0E945D02BE016D5F7F4F85E612
S11302208F0D0E945D020B810F700B832981229533
S1130230269527708A8190E0880F991F880F991F4F
S1130240880F991F9927822BF6019183808302835B
S113025010E00EC0812F8F0DBE016C5F7F4F8A5955
S11302600E945D02F601E10FF11D8C8183831F5F03
S1130270101780F3C6010F900F900F900F90DF912D
S1130280CF911F910F91FF90DF90CF9008950F931E
S11302901F93CF93DF93CDB7DEB766970FB6F8946D
S11302A0DEBF0FBECDBF0E949E02082F80FF3DC05F
S11302B060E0CE010C960E94ED008BE0FE013C96BE
S11302C0DE01119601900D928A95E1F78A818F9350
S11302D089818F9386E091E09F938F930E943B04E2
S11302E00F900F900F900F9010E014C0E4E0F0E036
S11302F0EC0FFD1FE10FF11D80811F928F9383E2AC
S113030091E09F938F930E943B041F5F0F900F9087
S11303100F900F908B81181748F383E691E09F9319
S11303208F930E943B040F900F9001FF3DC061E04A
S1130330CE010C960E94ED008BE0FE013C96DE019E
S1130340119601900D928A95E1F78A818F938981A4
S11303508F9386E291E09F938F930E943B040F90CA
S11303600F900F900F9010E014C0E4E0F0E0EC0F59
S1130370FD1FE10FF11D80811F928F9383E291E0B5
S11303809F938F930E943B041F5F0F900F900F90D9
S11303900F908B81181748F383E691E09F938F9316
S11303A00E943B040F900F9003FF08C083E491E088
S11303B09F938F930E943B040F900F9002FF08C0FD
S11303C088E491E09F938F930E943B040F900F90D9
S11303D004FF08C086E691E09F938F930E943B043C
S11303E00F900F9040E06FEF8CE20E94AA02669695
S11303F00FB6F894DEBF0FBECDBFDF91CF911F9132
S11304000F9108951F920F920FB60F9211242F93FC
S11304103F934F935F936F937F938F939F93AF9388
S1130420BF93EF93FF930E94470184E891E09F9369
S11304308F930E943B040F900F90FF91EF91BF9117
S1130440AF919F918F917F916F915F914F913F9168
S11304502F910F900FBE0F901F901895CF93DF939D
S1130460CDB7DEB766970FB6F894DEBF0FBECDBF2B
S11304708FE190E00E94E3030E94D4030E9457009E
S11304800E9476030E942A0378942AE831E043E02C
S113049060E070E0CE010C960E947C008BE0FE01CF
S11304A03C96DE01119601900D928A95E1F760E089
S11304B0CE0101960E949900FFCF1F93CF93DF9343
S11304C0182FEB0188B38F7E88BB83E00E94BF03A3
S11304D0812F0E94BF030E94C303888388B3806175
S11304E088BBDF91CF911F91089588B38F7E88BB1D
S11304F080EC0E94BF0388B3806188BB0895CF93CA
S1130500DF93D82FC62F88B38F7E88BB82E00E94EA
S1130510BF038D2F0E94BF038C2F0E94BF0388B39B
S1130520806188BBDF91CF91089598B39F7E98BB7B
S11305300E94BF0388B3806188BB089588B38F7E0F
S113054088BB80EA0E94BF030E94C30398B39061F2
S113055098BB08951F93CF93DF93182FD62FC42FE2
S113056088B38F7E88BB85E00E94BF03812F0E94E1
S1130570BF038D2F0E94BF038C2F0E94BF0388B33B
S1130580806188BBDF91CF911F91089581B3877FEC
S113059081BB8BB780688BBF85B78B7F85BF85B7E1
S11305A0886085BF4FE06FEF8BE20E94AA02089536
S11305B0CF93DF931F92CDB7DEB743E06FEF8AE2AC
S11305C00E94AA02BE016F5F7F4F8AE20E945D0211
S11305D08981833051F08EE891E09F938F930E943C
S11305E03B040F900F908FEF31C041E36FE389E23A
S11305F00E94AA02BE016F5F7F4F8AE20E945D02E1
S11306008981833051F083EA91E09F938F930E9414
S11306103B040F900F908FEF19C045E067E088E22C
S11306200E94AA02BE016F5F7F4F8AE20E945D02B0
S11306308981833051F088EB91E09F938F930E94DE
S11306403B040F900F908FEF01C080E00F90DF917B
S1130650CF910895CF93DF931F92CDB7DEB70E9459
S1130660CD030E947502BE016F5F7F4F8EE00E9432
S11306705D028981807E803851F08DEC91E09F93FA
S11306808F930E943B040F900F908FEF28C00E941D
S1130690D8020E94C60240E660E680E60E94AA02F2
S11306A040E660E680E70E94AA0240E460EE8FE044
S11306B00E94AA02BE016F5F7F4F8EE00E945D021E
S11306C08981807E803451F08BEF91E09F938F93EA
S11306D00E943B040F900F908FEF01C080E00F90B9
S11306E0DF91CF9108958093001008958EEA0E94BF
S11306F0730381EA0E9473038AED0E94730382E10B
S11307000E94730388EC0E94730388EA0E947303B7
S11307108FE30E94730385ED0E94730380E80E94B7
S1130720730381E80E94730380E50E94730389EDDB
S11307300E94730381E20E94730380E20E947303A8
S113074082E00E9473038BED0E94730380E30E9496
S113075073038DEA0E94730380E00E94730384EAAA
S11307600E94730386EA0E9473038FEA0E94730354
S113077080E20E94730382E00E94730308958FB99C
S1130780779BFECF08958AEA8FB9779BFECF8FB10E
S1130790089588B3806188BB089580EB87BB81E5A9
S11307A08DB90E94C903089585B7806885BF80B755
S11307B0806280BF08955D9BFECF8CB908955F9BD6
S11307C0FECF8CB1089590BD89B988E18AB98EE8CD
S11307D080BD6FED73E08BED93E00E94F00308950C
S11307E00F931F93CF93DF93009731F46115710535
S11307F019F480E090E03AC08B01EC016EE070E007
S113080081E090E00E943206FC01892B91F380E89C
S113081083830115110571F01387028781E88383AF
S113082080912D0290912E02892B21F4F0932E02B7
S1130830E0932D022097C9F0D187C087838182601D
S1130840838380912F0290913002892B71F4F0936D
S11308503002E0932F028091310290913202892B71
S113086021F4F0933202E0933102CF01DF91CF9172
S11308701F910F910895A0E0B0E0E1E4F4E00C943E
S11308803608AE014B5F5F4FFA0161917191AF0180
S113089080912F02909130020E945104E2E00C9466
S11308A05208ABE0B0E0E7E5F4E00C9426086C01F4
S11308B07B018A01FC0117821682838181FFCCC1EE
S11308C0CE0101963C01F6019381F70193FD8591D8
S11308D093FF81917F01882309F4BAC1853239F4E9
S11308E093FD859193FF81917F01853229F4B601AF
S11308F090E00E948C07E7CF912C212C312CFFE152
S1130900F315D8F08B3279F038F4803279F08332F1
S1130910A1F4232D20611DC08D3261F0803369F470
S1130920232D216016C0832D8260382EE32DE460D0
S11309303E2E2AC0F32DF8601DC037FC2DC020EDDB
S1130940280F2A3040F08E32B9F436FC81C1232DB1
S11309502064322E19C036FE06C08AE0989E200D0F
S11309601124922E11C0EAE02E9E200D1124222E75
S1130970F32DF0623F2E08C08C3621F4832D80685D
S1130980382E02C0883641F4F70193FD859193FF18
S113099081917F018111B3CF982F9F7D955493301E
S11309A028F40C5F1F4F9FE399830DC0833631F009
S11309B0833771F0833509F059C021C0F801808173
S11309C089830E5F1F4F88248394912C530113C095
S11309D02801F2E04F0E511CF801A080B18036FED0
S11309E003C0692D70E002C06FEF7FEFC5010E9464
S11309F081074C018201F32DFF773F2E16C0280199
S1130A0022E0420E511CF801A080B18036FE03C0E2
S1130A10692D70E002C06FEF7FEFC5010E946F0780
S1130A204C01F32DF0683F2E820133FC1BC0822D54
S1130A3090E088169906B0F4B60180E290E00E9436
S1130A408C072A94F4CFF50137FC859137FE819108
S1130A505F01B60190E00E948C0721102A9421E0E6
S1130A60821A91088114910471F7E8C0843611F058
S1130A70893641F5F80137FE07C0608171818281B2
S1130A8093810C5F1F4F08C060817181072E000C99
S1130A90880B990B0E5F1F4FF32DFF763F2E97FFA8
S1130AA009C090958095709561957F4F8F4F9F4FAA
S1130AB0F0683F2E2AE030E0A3010E94C807882E88
S1130AC0861845C0853731F4232D2F7EB22E2AE0B7
S1130AD030E025C0932D997FB92E8F36C1F018F4DC
S1130AE0883579F0B5C0803719F0883721F0B0C067
S1130AF0E92FE061BE2EB4FE0DC0FB2DF460BF2EC5
S1130B0009C034FE0AC0292F2660B22E06C028E090
S1130B1030E005C020E130E002C020E132E0F8011D
S1130B20B7FE07C060817181828193810C5F1F4F82
S1130B3006C06081718180E090E00E5F1F4FA301C9
S1130B400E94C807882E8618FB2DFF773F2E36FE9D
S1130B500DC0232D2E7FA22E891458F434FE0BC011
S1130B6032FC09C0832D8E7EA82E05C0B82CA32C80
S1130B7003C0B82C01C0B92CA4FE0FC0FE01E80DBF
S1130B80F11D8081803321F49A2D997EA92E09C00C
S1130B90A2FE06C0B394B39404C08A2D867809F0EB
S1130BA0B394A3FC11C0A0FE06C0B21488F4280CB0
S1130BB0922C9B180EC0B21460F4B60180E290E04F
S1130BC00E948C07B394F7CFB21418F42B1802C008
S1130BD0982C212CA4FE10C0B60180E390E00E9462
S1130BE08C07A2FE17C0A1FC03C088E790E002C0F6
S1130BF088E590E0B6010CC08A2D867859F0A1FEF4
S1130C0002C08BE201C080E2A7FC8DE2B60190E055
S1130C100E948C07891438F4B60180E390E00E94A6
S1130C208C079A94F7CF8A94F301E80DF11D808123
S1130C30B60190E00E948C078110F5CF222009F4C0
S1130C4042CEB60180E290E00E948C072A94F6CF4F
S1130C50F6018681978102C08FEF9FEF2B96E2E128
S1130C600C9442080F931F93CF93DF93869F8001C8
S1130C70879F100D969F100D1124C8010E944E06E7
S1130C80EC01009729F0A80160E070E00E947A0767
S1130C90CE01DF91CF911F910F9108950F931F9370
S1130CA0CF93DF938230910510F482E090E0E091DD
S1130CB03502F091360220E030E0A0E0B0E0309759
S1130CC019F1408151810281138148175907C8F0F5
S1130CD08417950769F4109731F012960C931297C4
S1130CE013961C9327C0009335021093360222C03A
S1130CF02115310519F04217530718F49A01BD0163
S1130D00EF01DF01F801DBCF21153105F9F0281BD4
S1130D10390B2430310580F48A819B81611571057A
S1130D2021F0FB019383828304C090933602809365
S1130D303502FE01329644C0FE01E20FF31F819397
S1130D40919322503109398328833AC02091330288
S1130D5030913402232B41F420910201309103019C
S1130D603093340220933302209100013091010129
S1130D702115310541F42DB73EB74091040150913E
S1130D800501241B350BE0913302F0913402E21784
S1130D90F307A0F42E1B3F0B2817390778F0AC019A
S1130DA04E5F5F4F2417350748F04E0F5F1F509377
S1130DB03402409333028193919302C0E0E0F0E067
S1130DC0CF01DF91CF911F910F910895CF93DF93BE
S1130DD0009709F481C0FC01329713821282A0911A
S1130DE03502B0913602109781F420813181820F4F
S1130DF0931F20913302309134022817390751F59B
S1130E00F0933402E093330267C0ED0120E030E058
S1130E10CE17DF0740F44A815B819E0141155105DD
S1130E20F1F0EA01F5CFD383C28340815181840F6D
S1130E30951FC817D90759F488819981840F951F84
S1130E400296918380838A819B8193838283211577
S1130E50310529F4F0933602E09335023DC0E901EF
S1130E60FB83EA8349915991C40FD51FEC17FD0701
S1130E7061F480819181840F951F0296E901998321
S1130E808883828193819B838A83E0E0F0E01296D9
S1130E908D919C911397009719F0FD01DC01F7CF18
S1130EA08D919C9111979D012E5F3F4F820F931F4F
S1130EB020913302309134022817390769F43097AE
S1130EC029F4109236021092350202C01382128263
S1130ED0B0933402A0933302DF91CF910895FC01C3
S1130EE00590615070400110D8F7809590958E0F51
S1130EF09F1F0895DC0101C06D9341505040E0F7FD
S1130F000895FC016150704001900110D8F780955C
S1130F1090958E0F9F1F08950F931F93CF93DF9388
S1130F20FB01238121FD03C08FEF9FEF2CC022FF23
S1130F3016C046815781248135814217530744F4F2
S1130F40A081B1819D012F5F3F4F318320838C931A
S1130F50268137812F5F3F4F3783268314C08B014F
S1130F60EC01FB010084F185E02D0995892BE1F664
S1130F70D80116968D919C911797019617969C937C
S1130F808E931697CE01DF91CF911F910F91089503
S1130F90FA01AA27283051F1203181F1E8946F93A6
S1130FA06E7F6E5F7F4F8F4F9F4FAF4FB1E03ED04C
S1130FB0B4E03CD0670F781F891F9A1FA11D680FEA
S1130FC0791F8A1F911DA11D6A0F711D811D911D1D
S1130FD0A11D20D009F468943F912AE0269F112492
S1130FE03019305D3193DEF6CF010895462F4770F6
S1130FF0405D4193B3E00FD0C9F7F6CF462F4F7051
S1131000405D4A3318F0495D31FD4052419302D0AE
S1131010A9F7EACFB4E0A695979587957795679554
S1131020BA95C9F700976105710508959B01AC0154
S11310300A2E06945795479537952795BA95C9F77B
S1131040620F731F841F951FA01D08952F923F9256
S11310504F925F926F927F928F929F92AF92BF92C4
S1131060CF92DF92EF92FF920F931F93CF93DF9370
S1131070CDB7DEB7CA1BDB0B0FB6F894DEBF0FBECD
S1131080CDBF09942A88398848885F846E847D841A
S11310908C849B84AA84B984C884DF80EE80FD801C
S11310A00C811B81AA81B981CE0FD11D0FB6F89492
S11110B0DEBF0FBECDBFED010895F894FFCF53
S11310BE000037022000425546464552303A204938
S11310CE44203D2025642C204D4553534147452053
S11310DE3D2000256400425546464552313A20498A
S11310EE44203D2025642C204D4553534147452033
S11310FE3D2000796F0A0D00425546464552203078
S113110E2069732063757272656E746C79206275D2
S113111E7379200A0D004255464645522031206906
S113112E732063757272656E746C7920627573794F
S113113E200A0D006E65690A0D0048656900577234
S113114E6F6E6720434E46312076616C75652021A3
S113115E0A0D0057726F6E6720434E463220766139
S113116E6C756520210A0D0057726F6E6720434E11
S113117E46332076616C756520210A0D004D43506F
S113118E32353135206973204E4F5420696E2063F9
S113119E6F6E666967206D6F646520616674657233
S11311AE20726573657420210A0D004D435032354B
S11311BE3135206973204E4F5420696E204C4F4FA9
S11311CE504241434B206D6F6465206166746572B5
S10F11DE20726573657420210A0D000066
S9030000FC
