S00E00004E4F44455F312E7372656360
S11300000C94ED010C9416030C94A9040C940A02AC
S11300100C940A020C940A020C940A020C940A022C
S11300200C940A020C940A020C940A020C940A021C
S11300300C940A020C940A020C940A020C940A020C
S11300400C940A020C940A020C940A020C940A02FC
S11300500C940A020C940A020C940A020C940A02EC
S11300600C940A020C940A020C940A020C940A02DC
S1130070D700CF00C600BB00AE00A10094008700EB
S113008082005175697400706C616365686F6C649B
S113009065723400706C616365686F6C646572339B
S11300A000706C616365686F6C6465723200706CBB
S11300B0616365686F6C6465723100486967687371
S11300C0636F7265730053657474696E677300506F
S11300D06C6179203A29004D61696E206D656E75F9
S11300E000000000000000000000065F5F06000042
S11300F0000007070007070000147F7F147F7F14A8
S113010000242E6B6B3A120000466630180C6662AF
S113011000307A4F5D377A4800040703000000007E
S113012000001C3E63410000000041633E1C0000CF
S113013000082A3E1C1C3E2A0808083E3E08080007
S11301400000A0E06000000000080808080808009B
S11301500000006060000000006030180C0603011D
S1130160003E7F594D7F3E000042427F7F40400069
S113017000627359496F660000226349497F360063
S113018000181C16137F7F1000276745457D390032
S1130190003C7E4B4979300000036371190F07005E
S11301A000367F49497F360000064F49693F1E00EB
S11301B00000006C6C0000000000A0EC6C0000006B
S11301C000081C36634100000014141414141400B5
S11301D000004163361C080000020351590F060059
S11301E0003E7F415D5D1F1E007C7E13137E7C00FC
S11301F000417F7F49497F36001C3E6341416322B1
S113020000417F7F41637F1C00417F7F495D4163E3
S113021000417F7F491D0103001C3E6341517372FD
S1130220007F7F08087F7F000000417F7F4100003E
S113023000307040417F3F0100417F7F081C77639D
S113024000417F7F41406070007F7F060C067F7F06
S1130250007F7F060C187F7F001C3E6341633E1CB9
S113026000417F7F49090F06001E3F21717F5E0018
S113027000417F7F19396F460026674D597B320054
S11302800003417F7F410300007F7F40407F7F0068
S1130290001F3F60603F1F00007F7F3018307F7F6A
S11302A00063771C081C776300074F78784F0700BA
S11302B0006773594D47637100007F7F414100001F
S11302C0000103060C183060000041417F7F0000EC
S11302D000080C0603060C08008080808080808063
S11302E0800000030704000000207454543C78404C
S11302F000413F7F44447C3800387C44446C2800EF
S113030000307848493F7F4000387C54545C1800E2
S113031000487E7F490302000098BCA4A4F87C0432
S113032000417F7F08047C780000447D7D4000000C
S11303300040C484FD7D000000417F7F10386C4480
S11303400000417F7F400000007C7C0C180C7C780E
S1130350007C7C04047C780000387C44447C3800B5
S11303600084FCF8A4243C1800183C24A4F8FC8461
S113037000447C78441C180000485C5454742400E5
S11303800000043E7F442400003C7C40403C7C4010
S1130390001C3C60603C1C00003C7C6030607C3C89
S11303A000446C3810386C44009CBCA0A0FC7C0059
S11303B0004C64745C4C64000008083E77414100C2
S11303C00000000077770000004141773E080800F4
S11303D00002030103020301000011241FBECFEF3A
S11303E0D4E0DEBFCDBF12E0A0E0B1E0E6E7F9E182
S11303F002C005900D92AC35B107D9F722E0ACE507
S1130400B2E001C01D92AD37B207E1F70E94CD04FE
S11304100C94B90C0C94000082E88FBD89E18EBD68
S113042085E090E095BD84BD82E090E09BBD8ABDEF
S113043087B38B7F87BB88B3846088BB81B38062BA
S113044081BB08950F931F93CF93DF93D82F1092FE
S11304500114109200148BB780648BBF80915C02EE
S11304608823E1F38BB78F7B8BBF80E094E00E94FD
S11304700408182F80E094E00E940408C82F80E04C
S113048094E00E940408082F80E094E00E9404088D
S1130490D13059F040F0D23019F0D33039F002C0E5
S11304A0802F04C003C0812F01C08C2FDF91CF9116
S11304B01F910F910895CF93DF9380E00E94220251
S11304C0C1E6D2E0888381E00E9422028983988178
S11304D01F928F931F929F9387E091E09F938F9336
S11304E00E9497080F900F900F900F900F900F900D
S11304F0DF91CF9108958BB780648BBF85B78160FE
S113050085BF85B7826085BF08951F93CF93DF931E
S113051080E00E942202C82F81E00E942202E82F7C
S1130520409161024C1798F450E02C2F30E0241BCA
S1130530350B64E6629FC001639F900D11246FEF39
S113054070E0641B750B0E941D08162F11C0C417A0
S113055078F4642F70E02C2F30E0261B370B44E630
S1130560429FC001439F900D11240E941D08162F25
S1130570209162022E1790F430E0F0E0E21BF30BBE
S113058044E64E9FC0014F9F900D11246FEF70E021
S1130590621B730B0E941D08D62F11C0E21778F45A
S11305A0622F70E02E2F30E0261B370B44E6429F6B
S11305B0C001439F900D11240E941D08D62F812F46
S11305C09D2FDF91CF911F910895292F092E000CA3
S11305D0330B33231CF43195219531092A3031052D
S11305E02CF09A309CF4973F9CF00FC0282F082ED3
S11305F0000C990B99231CF49195819591090A9704
S11306004CF02A304CF4273F4CF0089581E00895D3
S113061082E0089580E0089584E0089583E00895D9
S1130620B29902C081E0089580E008951F920F926C
S11306300FB60F9211248F9381E080935C028F9107
S11306400F900FBE0F901F901895CF93DF93DC018E
S1130650E90111967C936E9312964C93129790E055
S11306600BC0692F70E0FE01E60FF71F3081FD011A
S1130670E60FF71F33839F5F941798F3CD01DF9143
S1130680CF910895DF92EF92FF920F931F93CF9330
S1130690DF931F92CDB7DEB77C01D62EFC016081BB
S11306A07181162F1295110F107E6F717727769531
S11306B0679576956795769567950D2D0295007FDC
S11306C081E3800F0E946305612F82E3800F0E9403
S11306D06305F701628185E3800F0E946305BE0113
S11306E06F5F7F4F80E30E944105898183FF0CC0C7
S11306F014C0F701E10FF11D6381812F800F8A5C23
S11307000E9463051F5F01C010E0F7018281181782
S113071080F381E88D0D0E9479050F90DF91CF91D0
S11307201F910F91FF90EF90DF900895CF92DF9289
S1130730FF920F931F93CF93DF9300D000D0CDB7D8
S1130740DEB76C01F62EFF0CFF0CFF0CFF0CBE0194
S11307506F5F7F4F82E68F0D0E944105BE016E5F81
S11307607F4F81E68F0D0E944105BE016D5F7F4F73
S113077085E68F0D0E9441050B810F700B83298143
S11307802295269527708A8190E0880F991F880FFB
S1130790991F880F991F9927822BF60191838083D3
S11307A0028310E00EC0812F8F0DBE016C5F7F4F5E
S11307B08A590E944105F601E10FF11D8C81838362
S11307C01F5F101780F3C6010F900F900F900F90CA
S11307D0DF91CF911F910F91FF90DF90CF900895FB
S11307E00F931F93CF93DF93CDB7DEB766970FB602
S11307F0F894DEBF0FBECDBF0E948205082F80FF94
S113080041C060E0CE010C960E9496038BE0FE018D
S11308103C96DE01119601900D928A95E1F78A814A
S11308208F9389818F9384E291E09F938F930E94A9
S113083097080F900F900F900F9010E018C0E4E00D
S1130840F0E0EC0FFD1FE10FF11D8081282F082E31
S1130850000C330B3F938F9381E491E09F938F932C
S11308600E9497081F5F0F900F900F900F908B813D
S1130870181728F388E592E09F938F930E949708B6
S11308800F900F9001FF41C061E0CE010C960E94D1
S113089096038BE0FE013C96DE01119601900D92C9
S11308A08A95E1F78A818F9389818F9385E491E01A
S11308B09F938F930E9497080F900F900F900F9023
S11308C010E018C0E4E0F0E0EC0FFD1FE10FF11DB3
S11308D08081282F082E000C330B3F938F9382E6E0
S11308E091E09F938F930E9497081F5F0F900F9042
S11308F00F900F908B81181728F388E592E09F934F
S11309008F930E9497080F900F9002FF08C085E60E
S113091091E09F938F930E9497080F900F9004FF8C
S113092008C083E891E09F938F930E9497080F90EB
S11309300F9040E06FEF8CE20E948E0566960FB632
S1130940F894DEBF0FBECDBFDF91CF911F910F9101
S113095008951F920F920FB60F9211242F933F9375
S11309604F935F936F937F938F939F93AF93BF93B3
S1130970EF93FF930E94F003FF91EF91BF91AF912A
S11309809F918F917F916F915F914F913F912F91A3
S11309900F900FBE0F901F901895CF93DF93CDB794
S11309A0DEB76E970FB6F894DEBF0FBECDBF8FE1F2
S11309B090E00E9410080E94FD070E947B020E94A2
S11309C00C020E9401070E940F0678940E945B02A9
S11309D010E011111BC00E94BE060E9455062FEFA5
S11309E08FEF92E0215080409040E1F700C000C0BA
S11309F00E94A606813069F781EA91E09F938F9364
S1130A000E9497080F900F9011E0E3CF112309F390
S1130A100E948502D82E092F83E00E942202C82E4C
S1130A208D2D902F0E94E5027E01ECE0EE0EF11C6C
S1130A3088E0F70111928A95E9F7DC860D870E9418
S1130A4010038E87CF86188B970145E060E070E035
S1130A50CE0144960E9425038BE0FE017496DE01CC
S1130A60119601900D928A95E1F760E0CE0101960E
S1130A700E9442038FEF9FE20197F1F700C000004C
S1130A80A8CF1F93CF93DF93182FEB0188B38F7EEA
S1130A9088BB83E00E94E807812F0E94E8070E9438
S1130AA0EC07888388B3806188BBDF91CF911F9165
S1130AB0089588B38F7E88BB80EC0E94E80788B3D2
S1130AC0806188BB0895CF93DF93D82FC62F88B356
S1130AD08F7E88BB82E00E94E8078D2F0E94E80782
S1130AE08C2F0E94E80788B3806188BBDF91CF9187
S1130AF0089598B39F7E98BB0E94E80788B38061ED
S1130B0088BB089588B38F7E88BB80EA0E94E8077B
S1130B100E94EC0798B3906198BB08951F93CF93FC
S1130B20DF93182FD62FC42F88B38F7E88BB85E020
S1130B300E94E807812F0E94E8078D2F0E94E80792
S1130B408C2F0E94E80788B3806188BBDF91CF9126
S1130B501F91089581B3877F81BB8BB780688BBF5A
S1130B6085B78B7F85BF85B7886085BF4FE06FEF02
S1130B708BE20E948E050895CF93DF931F92CDB729
S1130B80DEB743E06FEF8AE20E948E0541EB6FEF20
S1130B9089E20E948E0545E067E088E20E948E05A6
S1130BA0BE016F5F7F4F8AE20E94410589818330D5
S1130BB051F08EEA91E09F938F930E9497080F90D3
S1130BC00F908FEF28C0BE016F5F7F4F89E20E94B4
S1130BD041058981813B51F083EC91E09F938F9390
S1130BE00E9497080F900F908FEF15C0BE016F5FA2
S1130BF07F4F88E20E94410589818770853051F0DA
S1130C0088ED91E09F938F930E9497080F900F9027
S1130C108FEF01C080E00F90DF91CF910895CF93C3
S1130C20DF931F92CDB7DEB70E94F6070E945905E5
S1130C30BE016F5F7F4F8EE00E9441058981807EF7
S1130C40803851F08DEE91E09F938F930E94970826
S1130C500F900F908FEF25C00E94BC050E94AA053B
S1130C6040E660E680E60E948E0540E660E680E7A6
S1130C700E948E0540E060EE8FE00E948E05BE016A
S1130C806F5F7F4F8EE00E9441058981807E49F02D
S1130C908BE192E09F938F930E9497080F900F909F
S1130CA08FEF0F90DF91CF9108950F931F93CF9300
S1130CB080915F029091600280915D0290915E024A
S1130CC080915F029091600204976AF4209106017A
S1130CD030E0AC01992324F444275527481B590BD1
S1130CE0C901841B950BC82F0E949A0760E070E02D
S1130CF084E090E00E946D078EE30E94AB070E949F
S1130D00780700E010E01BC0C93008F0C0E060E1E3
S1130D1070E0C8010E946D07EC2FF0E0EE0FFF1F9A
S1130D20E059FF4F6591749183E692E00E94450873
S1130D3083E692E00E94CA07CF5F0F5F1F4F08301F
S1130D40110514F3CF911F910F910895B29915C015
S1130D5080915F02909160029F938F938AE492E066
S1130D609F938F930E94970880915F0290916002F5
S1130D700F900F900F900F90089508950E94850290
S1130D800E94E502813051F480915F0290916002EB
S1130D9001979093600280935F020BC0823049F404
S1130DA080915F029091600201969093600280931B
S1130DB05F028091060190E020915F023091600211
S1130DC0821793072CF41092600210925F020AC0FB
S1130DD020915F0230916002332324F490936002E7
S1130DE080935F0280915F029091600290935E0213
S1130DF080935D02089580930010089580930012FB
S1130E0008958EEA0E94FB0681EA0E94FB068AEDA1
S1130E100E94FB0682E10E94FB0688EC0E94FB060E
S1130E2088EA0E94FB068FE30E94FB0685ED0E9480
S1130E30FB0680E80E94FB0681E80E94FB0680E531
S1130E400E94FB0689ED0E94FB0681E20E94FB06DC
S1130E5080E20E94FB0682E00E94FB068BED0E946A
S1130E60FB0680E30E94FB068DEA0E94FB0680E0FD
S1130E700E94FB0684EA0E94FB0686EA0E94FB06A7
S1130E808FEA0E94FB0680E20E94FB0682E00E9439
S1130E90FB06089580550E94FB060895CF93DF93C7
S1130EA0EC018F709078992324F40197806F9F6FE1
S1130EB001960E94FB06CE01DD230CF40F96959556
S1130EC08795959587959595879595958795805F51
S1130ED00E94FB06DF91CF910895CF93DF93EB013E
S1130EE00E944A07CE010E944E07DF91CF910895D8
S1130EF060E070E080E090E00E946D0708950F9339
S1130F001F93CF93DF938C0160E070E00E946D0724
S1130F10C0E0D0E004C080E00E94FE062196C03804
S1130F20D105CCF3C8010E944A07DF91CF911F91EC
S1130F300F910895CF93DF93C0E0D0E004C0CE01B9
S1130F400E947F072196C830D105CCF30E94780710
S1130F50DF91CF9108951F93CF93DF9310EE180F75
S1130F60C0E0D0E010C0E12FF0E0EE0FFF1FEE0F65
S1130F70FF1FEE0FFF1FEC0FFD1FEF51FF4F84917A
S1130F800E94FE062196C830D1056CF3DF91CF9103
S1130F901F9108950F931F93CF93DF938C01C0E0AB
S1130FA0D0E007C0F801EC0FFD1F80810E94AB0761
S1130FB02196F80101900020E9F73197E01BF10B2D
S1130FC0CE17DF0778F3DF91CF911F910F9108952A
S1130FD08FB9779BFECF08958AEA8FB9779BFECFAE
S1130FE08FB1089588B3806188BB089580EB87BB77
S1130FF081E58DB90E94F207089585B7806885BFA1
S113100080B7806280BF0895905FFC01808108955D
S11310105D9BFECF8CB908955F9BFECF8CB1089584
S113102090BD89B988E18AB98EE880BD6CE078E02A
S113103088E098E00E944C08089597FB072E16F468
S1131040009407D077FD09D00E94310807FC05D031
S11310503EF4909581959F4F0895709561957F4FCB
S11310600895AA1BBB1B51E107C0AA1FBB1FA617EB
S1131070B70710F0A61BB70B881F991F5A95A9F73D
S113108080959095BC01CD010895FB01DC0105908C
S11310900D920020E1F708950F931F93CF93DF93F0
S11310A0009731F46115710519F480E090E03AC0BD
S11310B08B01EC016EE070E081E090E00E948E0A0A
S11310C0FC01892B91F380E883830115110571F0EC
S11310D01387028781E8838380917302909174025D
S11310E0892B21F4F0937402E09373022097C9F0E2
S11310F0D187C087838182608383809175029091B8
S11311007602892B71F4F0937602E0937502809154
S1131110770290917802892B21F4F0937802E0937E
S11311207702CF01DF91CF911F910F910895A0E035
S1131130B0E0EDE9F8E00C94920CAE014B5F5F4F28
S1131140FA0161917191AF018091750290917602DB
S11311500E94AD08E2E00C94AE0CABE0B0E0E3EB2F
S1131160F8E00C94820C6C017B018A01FC0117826B
S11311701682838181FFCCC1CE0101963C01F60128
S11311809381F70193FD859193FF81917F018823DA
S113119009F4BAC1853239F493FD859193FF8191A5
S11311A07F01853229F4B60190E00E94E80BE7CF75
S11311B0912C212C312CFFE1F315D8F08B3279F0EE
S11311C038F4803279F08332A1F4232D20611DC0DC
S11311D08D3261F0803369F4232D216016C0832D94
S11311E08260382EE32DE4603E2E2AC0F32DF86091
S11311F01DC037FC2DC020ED280F2A3040F08E3260
S1131200B9F436FC81C1232D2064322E19C036FE78
S113121006C08AE0989E200D1124922E11C0EAE0A7
S11312202E9E200D1124222EF32DF0623F2E08C095
S11312308C3621F4832D8068382E02C0883641F420
S1131240F70193FD859193FF81917F018111B3CFC4
S1131250982F9F7D9554933028F40C5F1F4F9FE384
S113126099830DC0833631F0833771F0833509F0EB
S113127059C021C0F801808189830E5F1F4F8824E3
S11312808394912C530113C02801F2E04F0E511C9A
S1131290F801A080B18036FE03C0692D70E002C061
S11312A06FEF7FEFC5010E94DD0B4C018201F32D2E
S11312B0FF773F2E16C0280122E0420E511CF80190
S11312C0A080B18036FE03C0692D70E002C06FEFCC
S11312D07FEFC5010E94CB0B4C01F32DF0683F2E2C
S11312E0820133FC1BC0822D90E088169906B0F46D
S11312F0B60180E290E00E94E80B2A94F4CFF50155
S113130037FC859137FE81915F01B60190E00E9420
S1131310E80B21102A9421E0821A91088114910487
S113132071F7E8C0843611F0893641F5F80137FECB
S113133007C060817181828193810C5F1F4F08C057
S113134060817181072E000C880B990B0E5F1F4F73
S1131350F32DFF763F2E97FF09C0909580957095E9
S113136061957F4F8F4F9F4FF0683F2E2AE030E00A
S1131370A3010E94240C882E861845C0853731F4B9
S1131380232D2F7EB22E2AE030E025C0932D997FA5
S1131390B92E8F36C1F018F4883579F0B5C080378E
S11313A019F0883721F0B0C0E92FE061BE2EB4FEF9
S11313B00DC0FB2DF460BF2E09C034FE0AC0292FD6
S11313C02660B22E06C028E030E005C020E130E0FF
S11313D002C020E132E0F801B7FE07C060817181EC
S11313E0828193810C5F1F4F06C06081718180E010
S11313F090E00E5F1F4FA3010E94240C882E8618D4
S1131400FB2DFF773F2E36FE0DC0232D2E7FA22EFF
S1131410891458F434FE0BC032FC09C0832D8E7E2F
S1131420A82E05C0B82CA32C03C0B82C01C0B92C1D
S1131430A4FE0FC0FE01E80DF11D8081803321F46C
S11314409A2D997EA92E09C0A2FE06C0B394B39426
S113145004C08A2D867809F0B394A3FC11C0A0FEC1
S113146006C0B21488F4280C922C9B180EC0B21437
S113147060F4B60180E290E00E94E80BB394F7CFE9
S1131480B21418F42B1802C0982C212CA4FE10C0FE
S1131490B60180E390E00E94E80BA2FE17C0A1FC15
S11314A003C088E790E002C088E590E0B6010CC074
S11314B08A2D867859F0A1FE02C08BE201C080E239
S11314C0A7FC8DE2B60190E00E94E80B891438F481
S11314D0B60180E390E00E94E80B9A94F7CF8A94D7
S11314E0F301E80DF11D8081B60190E00E94E80B44
S11314F08110F5CF222009F442CEB60180E290E0BB
S11315000E94E80B2A94F6CFF6018681978102C0E7
S11315108FEF9FEF2B96E2E10C949E0C0F931F9399
S1131520CF93DF93869F8001879F100D969F100DA8
S11315301124C8010E94AA0AEC01009729F0A8010D
S113154060E070E00E94D60BCE01DF91CF911F9135
S11315500F9108950F931F93CF93DF9382309105DA
S113156010F482E090E0E0917B02F0917C0220E0B4
S113157030E0A0E0B0E0309719F140815181028160
S1131580138148175907C8F08417950769F4109711
S113159031F012960C93129713961C9327C0009364
S11315A07B0210937C0222C02115310519F04217E9
S11315B0530718F49A01BD01EF01DF01F801DBCFF5
S11315C021153105F9F0281B390B2430310580F43D
S11315D08A819B816115710521F0FB0193838283CC
S11315E004C090937C0280937B02FE01329644C037
S11315F0FE01E20FF31F8193919322503109398345
S113160028833AC02091790230917A02232B41F445
S1131610209102013091030130937A0220937902E0
S113162020910001309101012115310541F42DB7BC
S11316303EB74091040150910501241B350BE09104
S11316407902F0917A02E217F307A0F42E1B3F0B04
S11316502817390778F0AC014E5F5F4F2417350720
S113166048F04E0F5F1F50937A02409379028193A2
S1131670919302C0E0E0F0E0CF01DF91CF911F91A0
S11316800F910895CF93DF93009709F481C0FC0173
S1131690329713821282A0917B02B0917C02109740
S11316A081F420813181820F931F2091790230913E
S11316B07A022817390751F5F0937A02E0937902F8
S11316C067C0ED0120E030E0CE17DF0740F44A8127
S11316D05B819E0141155105F1F0EA01F5CFD383F9
S11316E0C28340815181840F951FC817D90759F4CB
S11316F088819981840F951F0296918380838A81C2
S11317009B81938382832115310529F4F0937C0214
S1131710E0937B023DC0E901FB83EA83499159913F
S1131720C40FD51FEC17FD0761F480819181840FEC
S1131730951F0296E90199838883828193819B8313
S11317408A83E0E0F0E012968D919C9113970097C4
S113175019F0FD01DC01F7CF8D919C9111979D014A
S11317602E5F3F4F820F931F2091790230917A02AE
S11317702817390769F4309729F410927C021092E3
S11317807B0202C013821282B0937A02A093790280
S1131790DF91CF910895FC010590615070400110D4
S11317A0D8F7809590958E0F9F1F0895DC0101C096
S11317B06D9341505040E0F70895FC016150704032
S11317C001900110D8F7809590958E0F9F1F089572
S11317D00F931F93CF93DF93FB01238121FD03C05C
S11317E08FEF9FEF2CC022FF16C0468157812481C2
S11317F035814217530744F4A081B1819D012F5FC5
S11318003F4F318320838C93268137812F5F3F4F55
S11318103783268314C08B01EC01FB010084F1851E
S1131820E02D0995892BE1F6D80116968D919C91AE
S11318301797019617969C938E931697CE01DF9176
S1131840CF911F910F910895FA01AA27283051F1E1
S1131850203181F1E8946F936E7F6E5F7F4F8F4FDD
S11318609F4FAF4FB1E03ED0B4E03CD0670F781F3C
S1131870891F9A1FA11D680F791F8A1F911DA11D21
S11318806A0F711D811D911DA11D20D009F468945A
S11318903F912AE0269F11243019305D3193DEF602
S11318A0CF010895462F4770405D4193B3E00FD0B8
S11318B0C9F7F6CF462F4F70405D4A3318F0495DA3
S11318C031FD4052419302D0A9F7EACFB4E0A69586
S11318D09795879577956795BA95C9F700976105A8
S11318E0710508959B01AC010A2E069457954795FE
S11318F037952795BA95C9F7620F731F841F951FF3
S1131900A01D08952F923F924F925F926F927F9203
S11319108F929F92AF92BF92CF92DF92EF92FF92FB
S11319200F931F93CF93DF93CDB7DEB7CA1BDB0BA7
S11319300FB6F894DEBF0FBECDBF09942A8839884C
S113194048885F846E847D848C849B84AA84B98453
S1131950C884DF80EE80FD800C811B81AA81B9815F
S1131960CE0FD11D0FB6F894DEBF0FBECDBFED0173
S10919700895F894FFCF76
S113197600007D0220000978206F66667365743A5C
S11319862025642C2079206F66667365743A2025B9
S1131996640A0D00425546464552303A20494420D1
S11319A63D2025642C204D455353414745203D2079
S11319B60025642000425546464552313A204944A2
S11319C6203D2025642C204D455353414745203D59
S11319D6200025640042554646455220302069734E
S11319E62063757272656E746C79206275737920E2
S11319F60A0D00425546464552203120697320633C
S1131A06757272656E746C792062757379200A0D2D
S1131A160047414D45204953204F4E0A0D00577249
S1131A266F6E6720434E46312076616C75652021C2
S1131A360A0D0057726F6E6720434E463220766158
S1131A466C756520210A0D0057726F6E6720434E30
S1131A5646332076616C756520210A0D004D43508E
S1131A6632353135206973204E4F5420696E206318
S1131A766F6E666967206D6F646520616674657252
S1131A8620726573657420210A0D004D435032356A
S1131A963135206973204E4F5420696E20204E4FF5
S1131AA6524D414C206D6F646520616674657220E9
S1131AB6726573657420210A0D004D656E75206983
S10F1AC674656D3A202564200A0D0000B0
S9030000FC
