:100000000C9438000C946D000C9455000C94550021
:100010000C9455000C9455000C9455000C9455000C
:100020000C9455000C9455000C9455000C945500FC
:100030000C9455000C9455000C9455000C945500EC
:100040000C9455000C9455000C9455000C945500DC
:100050000C9455000C9455000C9455000C945500CC
:100060000C9455000C9455000C9455000C945500BC
:1000700011241FBECFEFD4E0DEBFCDBF11E0A0E062
:10008000B1E0E2E2FDE002C005900D92A83AB107AE
:10009000D9F721E0A8EAB1E001C01D92A33BB20765
:1000A000E1F70E9499000C948F060C94000082E8FE
:1000B0008FBD89E18EBD85E090E095BD84BD82E075
:1000C00090E09BBD8ABD87B38B7F87BB88B384607C
:1000D00088BB81B3806281BB08951F920F920FB6D7
:1000E0000F9211248F9381E08093A8018F910F903C
:1000F0000FBE0F901F901895CF93DF93DC01E9019D
:1001000011967C936E9312964C93129790E00BC0CD
:10011000692F70E0FE01E60FF71F3081FD01E60F49
:10012000F71F33839F5F941798F3CD01DF91CF9131
:100130000895CF93DF93CDB7DEB72B970FB6F89422
:10014000DEBF0FBECDBF8FE190E00E9415020E947E
:1001500006020E9457000E94A8010E945C0126E04E
:1001600031E043E060E070E0CE0101960E947C0047
:100170007894FFCF1F93CF93DF93182FEB0188B3B1
:100180008F7E88BB83E00E94F101812F0E94F101E4
:100190000E94F501888388B3806188BBDF91CF918D
:1001A0001F91089588B38F7E88BB80EC0E94F10177
:1001B00088B3806188BB08951F93CF93DF93182F76
:1001C000D62FC42F88B38F7E88BB85E00E94F101B3
:1001D000812F0E94F1018D2F0E94F1018C2F0E942E
:1001E000F10188B3806188BBDF91CF911F910895A1
:1001F00081B3877F81BB8BB780688BBF85B78B7FCF
:1002000085BF85B7886085BF4FE06FEF8BE20E94A6
:10021000DC000895CF93DF931F92CDB7DEB744E0A3
:100220006FEF8AE20E94DC00BE016F5F7F4F8AE2BF
:100230000E94BA008981843051F08AE091E09F9356
:100240008F930E946D020F900F908FEF31C041E3AA
:100250006FE389E20E94DC00BE016F5F7F4F8AE29C
:100260000E94BA008981843051F08FE191E09F9320
:100270008F930E946D020F900F908FEF19C045E091
:1002800067E088E20E94DC00BE016F5F7F4F8AE278
:100290000E94BA008981843051F084E391E09F93F9
:1002A0008F930E946D020F900F908FEF01C080E03E
:1002B0000F90DF91CF910895CF93DF931F92CDB729
:1002C000DEB70E94FF010E94D200BE016F5F7F4F28
:1002D0008EE00E94BA008981807E803851F089E4E6
:1002E00091E09F938F930E946D020F900F908FEF7C
:1002F00028C00E940A010E94F80040E660E680E6FD
:100300000E94DC0040E660E680E70E94DC0040E4FA
:1003100060EE8FE00E94DC00BE016F5F7F4F8EE0D9
:100320000E94BA008981807E803451F087E791E095
:100330009F938F930E946D020F900F908FEF01C0DB
:1003400080E00F90DF91CF91089580930010089581
:100350008EEA0E94A50181EA0E94A5018AED0E9411
:10036000A50182E10E94A50188EC0E94A50188EA0E
:100370000E94A5018FE30E94A50185ED0E94A501C1
:1003800080E80E94A50181E80E94A50180E50E9405
:10039000A50189ED0E94A50181E20E94A50180E2EC
:1003A0000E94A50182E00E94A5018BED0E94A5019B
:1003B00080E30E94A5018DEA0E94A50180E00E94D1
:1003C000A50184EA0E94A50186EA0E94A5018FEAA0
:1003D0000E94A50180E20E94A50182E00E94A50181
:1003E00008958FB9779BFECF08958AEA8FB9779BDE
:1003F000FECF8FB1089588B3806188BB089580EBEC
:1004000087BB81E58DB90E94FB01089585B780689F
:1004100085BF80B7806280BF08955D9BFECF8CB999
:1004200008955F9BFECF8CB1089590BD89B988E196
:100430008AB98EE880BD61E172E08DE092E00E94B1
:10044000220208950F931F93CF93DF93009731F407
:100450006115710519F480E090E03AC08B01EC0160
:100460006EE070E081E090E00E946404FC01892B62
:1004700091F380E883830115110571F013870287DA
:1004800081E883838091A9019091AA01892B21F4AD
:10049000F093AA01E093A9012097C9F0D187C08702
:1004A0008381826083838091AB019091AC01892B21
:1004B00071F4F093AC01E093AB018091AD019091A8
:1004C000AE01892B21F4F093AE01E093AD01CF0191
:1004D000DF91CF911F910F910895A0E0B0E0E3E785
:1004E000F2E00C946806AE014B5F5F4FFA01619138
:1004F0007191AF018091AB019091AC010E94830298
:10050000E2E00C948406ABE0B0E0E9E8F2E00C94A1
:1005100058066C017B018A01FC01178216828381D7
:1005200081FFCCC1CE0101963C01F6019381F70118
:1005300093FD859193FF81917F01882309F4BAC1CE
:10054000853239F493FD859193FF81917F01853246
:1005500029F4B60190E00E94BE05E7CF912C212C32
:10056000312CFFE1F315D8F08B3279F038F480327A
:1005700079F08332A1F4232D20611DC08D3261F00A
:10058000803369F4232D216016C0832D8260382EBC
:10059000E32DE4603E2E2AC0F32DF8601DC037FC29
:1005A0002DC020ED280F2A3040F08E32B9F436FCF1
:1005B00081C1232D2064322E19C036FE06C08AE088
:1005C000989E200D1124922E11C0EAE02E9E200D3F
:1005D0001124222EF32DF0623F2E08C08C3621F418
:1005E000832D8068382E02C0883641F4F70193FDD0
:1005F000859193FF81917F018111B3CF982F9F7DCA
:100600009554933028F40C5F1F4F9FE399830DC0DE
:10061000833631F0833771F0833509F059C021C03A
:10062000F801808189830E5F1F4F88248394912C69
:10063000530113C02801F2E04F0E511CF801A080B5
:10064000B18036FE03C0692D70E002C06FEF7FEF0E
:10065000C5010E94B3054C018201F32DFF773F2EA7
:1006600016C0280122E0420E511CF801A080B18082
:1006700036FE03C0692D70E002C06FEF7FEFC50149
:100680000E94A1054C01F32DF0683F2E820133FC3E
:100690001BC0822D90E088169906B0F4B60180E266
:1006A00090E00E94BE052A94F4CFF50137FC8591B5
:1006B00037FE81915F01B60190E00E94BE052110D6
:1006C0002A9421E0821A91088114910471F7E8C0FC
:1006D000843611F0893641F5F80137FE07C0608194
:1006E0007181828193810C5F1F4F08C0608171818D
:1006F000072E000C880B990B0E5F1F4FF32DFF7612
:100700003F2E97FF09C090958095709561957F4F1A
:100710008F4F9F4FF0683F2E2AE030E0A3010E94E8
:10072000FA05882E861845C0853731F4232D2F7E93
:10073000B22E2AE030E025C0932D997FB92E8F3656
:10074000C1F018F4883579F0B5C0803719F08837D2
:1007500021F0B0C0E92FE061BE2EB4FE0DC0FB2D2C
:10076000F460BF2E09C034FE0AC0292F2660B22EC5
:1007700006C028E030E005C020E130E002C020E102
:1007800032E0F801B7FE07C06081718182819381F8
:100790000C5F1F4F06C06081718180E090E00E5FAA
:1007A0001F4FA3010E94FA05882E8618FB2DFF77A4
:1007B0003F2E36FE0DC0232D2E7FA22E891458F415
:1007C00034FE0BC032FC09C0832D8E7EA82E05C0DE
:1007D000B82CA32C03C0B82C01C0B92CA4FE0FC0A8
:1007E000FE01E80DF11D8081803321F49A2D997E60
:1007F000A92E09C0A2FE06C0B394B39404C08A2DEA
:10080000867809F0B394A3FC11C0A0FE06C0B21410
:1008100088F4280C922C9B180EC0B21460F4B60118
:1008200080E290E00E94BE05B394F7CFB21418F4B2
:100830002B1802C0982C212CA4FE10C0B60180E316
:1008400090E00E94BE05A2FE17C0A1FC03C088E78D
:1008500090E002C088E590E0B6010CC08A2D867851
:1008600059F0A1FE02C08BE201C080E2A7FC8DE23C
:10087000B60190E00E94BE05891438F4B60180E309
:1008800090E00E94BE059A94F7CF8A94F301E80D98
:10089000F11D8081B60190E00E94BE058110F5CF68
:1008A000222009F442CEB60180E290E00E94BE050B
:1008B0002A94F6CFF6018681978102C08FEF9FEFD1
:1008C0002B96E2E10C9474060F931F93CF93DF9362
:1008D000869F8001879F100D969F100D1124C801DF
:1008E0000E948004EC01009729F0A80160E070E00C
:1008F0000E94AC05CE01DF91CF911F910F91089519
:100900000F931F93CF93DF938230910510F482E011
:1009100090E0E091B101F091B20120E030E0A0E080
:10092000B0E0309719F1408151810281138148175D
:100930005907C8F08417950769F4109731F012969B
:100940000C93129713961C9327C00093B101109338
:10095000B20122C02115310519F04217530718F4CE
:100960009A01BD01EF01DF01F801DBCF211531054F
:10097000F9F0281B390B2430310580F48A819B81E2
:100980006115710521F0FB019383828304C090936C
:10099000B2018093B101FE01329644C0FE01E20F24
:1009A000F31F8193919322503109398328833AC0F0
:1009B0002091AF013091B001232B41F4209102012D
:1009C000309103013093B0012093AF0120910001D9
:1009D000309101012115310541F42DB73EB7409109
:1009E000040150910501241B350BE091AF01F091FA
:1009F000B001E217F307A0F42E1B3F0B28173907AD
:100A000078F0AC014E5F5F4F2417350748F04E0F6A
:100A10005F1F5093B0014093AF018193919302C047
:100A2000E0E0F0E0CF01DF91CF911F910F910895A9
:100A3000CF93DF93009709F481C0FC0132971382B2
:100A40001282A091B101B091B201109781F420817E
:100A50003181820F931F2091AF013091B00128178F
:100A6000390751F5F093B001E093AF0167C0ED0194
:100A700020E030E0CE17DF0740F44A815B819E0121
:100A800041155105F1F0EA01F5CFD383C2834081CE
:100A90005181840F951FC817D90759F4888199810E
:100AA000840F951F0296918380838A819B81938313
:100AB00082832115310529F4F093B201E093B1014D
:100AC0003DC0E901FB83EA8349915991C40FD51FC9
:100AD000EC17FD0761F480819181840F951F0296C8
:100AE000E90199838883828193819B838A83E0E0F3
:100AF000F0E012968D919C911397009719F0FD01EB
:100B0000DC01F7CF8D919C9111979D012E5F3F4F96
:100B1000820F931F2091AF013091B0012817390740
:100B200069F4309729F41092B2011092B10102C019
:100B300013821282B093B001A093AF01DF91CF91E5
:100B40000895FC010590615070400110D8F7809520
:100B500090958E0F9F1F0895DC0101C06D93415049
:100B60005040E0F70895FC01615070400190011081
:100B7000D8F7809590958E0F9F1F08950F931F9320
:100B8000CF93DF93FB01238121FD03C08FEF9FEF04
:100B90002CC022FF16C0468157812481358142171F
:100BA000530744F4A081B1819D012F5F3F4F3183F2
:100BB00020838C93268137812F5F3F4F3783268395
:100BC00014C08B01EC01FB010084F185E02D099537
:100BD000892BE1F6D80116968D919C911797019675
:100BE00017969C938E931697CE01DF91CF911F910C
:100BF0000F910895FA01AA27283051F1203181F18F
:100C0000E8946F936E7F6E5F7F4F8F4F9F4FAF4F14
:100C1000B1E03ED0B4E03CD0670F781F891F9A1F27
:100C2000A11D680F791F8A1F911DA11D6A0F711DDB
:100C3000811D911DA11D20D009F468943F912AE0E7
:100C4000269F11243019305D3193DEF6CF010895CF
:100C5000462F4770405D4193B3E00FD0C9F7F6CF00
:100C6000462F4F70405D4A3318F0495D31FD4052C8
:100C7000419302D0A9F7EACFB4E0A695979587955E
:100C800077956795BA95C9F700976105710508953D
:100C90009B01AC010A2E06945795479537952795E9
:100CA000BA95C9F7620F731F841F951FA01D089581
:100CB0002F923F924F925F926F927F928F929F926C
:100CC000AF92BF92CF92DF92EF92FF920F931F935A
:100CD000CF93DF93CDB7DEB7CA1BDB0B0FB6F8940B
:100CE000DEBF0FBECDBF09942A88398848885F844B
:100CF0006E847D848C849B84AA84B984C884DF80BC
:100D0000EE80FD800C811B81AA81B981CE0FD11D9F
:100D10000FB6F894DEBF0FBECDBFED010895F89475
:020D2000FFCF03
:100D22000000B30120004865690057726F6E6720AA
:100D3200434E46312076616C756520210A0D0057BD
:100D4200726F6E6720434E46322076616C75652065
:100D5200210A0D0057726F6E6720434E463320768C
:100D6200616C756520210A0D004D435032353135D5
:100D7200206973204E4F5420696E20636F6E66693E
:100D820067206D6F64652061667465722072657399
:100D9200657420210A0D004D4350323531352069EA
:100DA20073204E4F5420696E204C4F4F50424143A6
:100DB2004B206D6F64652061667465722072657385
:080DC200657420210A0D0000F8
:00000001FF
