S00E00004E4F44455F312E7372656360
S11300000C9438000C946D000C9455000C9455001D
S11300100C9455000C9455000C9455000C94550008
S11300200C9455000C9455000C9455000C945500F8
S11300300C9455000C9455000C9455000C945500E8
S11300400C9455000C9455000C9455000C945500D8
S11300500C9455000C9455000C9455000C945500C8
S11300600C9455000C9455000C9455000C945500B8
S113007011241FBECFEFD4E0DEBFCDBF11E0A0E05E
S1130080B1E0ECE5FEE002C005900D92A03BB107A3
S1130090D9F721E0A0EBB1E001C01D92AB3BB20760
S11300A0E1F70E9443010C942C070C94000082E8B1
S11300B08FBD89E18EBD85E090E095BD84BD82E071
S11300C090E09BBD8ABD87B38B7F87BB88B3846078
S11300D088BB81B3806281BB08951F920F920FB6D3
S11300E00F9211248F9381E08093B0018F910F9030
S11300F00FBE0F901F901895CF93DF93DC01E90199
S113010011967C936E9312964C93129790E00BC0C9
S1130110692F70E0FE01E60FF71F3081FD01E60F45
S1130120F71F33839F5F941798F3CD01DF91CF912D
S11301300895DF92EF92FF920F931F93CF93DF9373
S11301401F92CDB7DEB77C01D62EFC016081718190
S1130150162F1295110F107E687F7770769567952C
S113016076956795769567950D2D0295007F81E3C9
S1130170800F0E94BF01612F82E3800F0E94BF01A4
S1130180F701628185E3800F0E94BF01BE016F5FAA
S11301907F4F80E30E949D01898183FF0CC014C0BE
S11301A0F701E10FF11D6381812F800F8A5C0E94AA
S11301B0BF011F5F01C010E0F7018281181780F3AF
S11301C081E88D0D0E94D5010F90DF91CF911F9191
S11301D00F91FF90EF90DF900895DF92EF92FF92DE
S11301E00F931F93CF93DF9300D000D0CDB7DEB72A
S11301F07C01062F0295007FBE016F5F7F4F82E670
S1130200800F0E949D01BE016E5F7F4F81E6800FCB
S11302100E949D01BE016D5F7F4F85E6800F0E94A5
S11302209D0129812295269527708A8190E0880F67
S1130230991F880F991F880F991F9927822BF701FF
S113024091838083DB80D28210E00EC0812F800FE7
S1130250BE016C5F7F4F8A590E949D01F701E10F37
S1130260F11D8C8183831F5F1D1580F3C7010F90DF
S11302700F900F900F90DF91CF911F910F91FF90EE
S1130280EF90DF900895CF93DF93CDB7DEB7A197BA
S11302900FB6F894DEBF0FBECDBF8FE190E00E9491
S11302A0B2020E94A3020E9457000E9445020E94CB
S11302B0FA0126E031E043E063E070E0CE014796C6
S11302C00E947C008BE0FE017796DE01119601907E
S11302D00D928A95E1F760E0CE0101960E949900A3
S11302E02FEF8FEF95E0215080409040E1F700C060
S11302F000C060E0CE010C960E94ED008C811F923C
S11303008F930EE011E01F930F930E940A038F85D1
S11303101F928F931F930F930E940A032FEF8FEF67
S11303209EE0215080409040E1F700C000000FB6ED
S1130330F894DEBF0FBECDBFCECF1F93CF93DF9314
S1130340182FEB0188B38F7E88BB83E00E948E0256
S1130350812F0E948E020E949202888388B380615A
S113036088BBDF91CF911F91089588B38F7E88BB9E
S113037080EC0E948E0288B3806188BB0895CF937D
S1130380DF93D82FC62F88B38F7E88BB82E00E946C
S11303908E028D2F0E948E028C2F0E948E0288B3B3
S11303A0806188BBDF91CF91089598B39F7E98BBFD
S11303B00E948E0288B3806188BB08951F93CF93F7
S11303C0DF93182FD62FC42F88B38F7E88BB85E088
S11303D00E948E02812F0E948E028D2F0E948E0217
S11303E08C2F0E948E0288B3806188BBDF91CF91ED
S11303F01F910895CF93DF931F92CDB7DEB70E946C
S11304009C020E94B501BE016F5F7F4F8EE00E9487
S11304109D0189811F928F938AE091E09F938F932E
S11304200E940A038981807E0F900F900F900F9095
S1130430803851F083E191E09F938F930E940A03E7
S11304400F900F908FEF1AC040E460EE8FE00E948F
S1130450DE01BE016F5F7F4F8EE00E949D018981A6
S1130460807E803451F081E491E09F938F930E94C9
S11304700A030F900F908FEF01C080E00F90DF917F
S1130480CF9108958093001008958EEA0E9442024D
S113049081EA0E9442028AED0E94420282E10E94A5
S11304A0420288EC0E94420288EA0E9442028FE3E0
S11304B00E94420285ED0E94420280E80E944202AC
S11304C081E80E94420280E50E94420289ED0E9476
S11304D0420281E20E94420280E20E94420282E0E1
S11304E00E9442028BED0E94420280E30E9442027B
S11304F08DEA0E94420280E00E94420284EA0E9445
S1130500420286EA0E9442028FEA0E94420280E28C
S11305100E94420282E00E94420208958FB9779BB2
S1130520FECF08958AEA8FB9779BFECF8FB10895E5
S113053088B3806188BB089580EB87BB81E58DB962
S11305400E949802089585B7806885BF80B780624D
S113055080BF08955D9BFECF8CB908955F9BFECF4D
S11305608CB1089590BD89B988E18AB98EE880BDBF
S11305706EEA72E08AEA92E00E94BF0208950F9345
S11305801F93CF93DF93009731F46115710519F42C
S113059080E090E03AC08B01EC016EE070E081E015
S11305A090E00E940105FC01892B91F380E883838C
S11305B00115110571F01387028781E88383809107
S11305C0B1019091B201892B21F4F093B201E0932F
S11305D0B1012097C9F0D187C0878381826083836A
S11305E08091B3019091B401892B71F4F093B4011B
S11305F0E093B3018091B5019091B601892B21F468
S1130600F093B601E093B501CF01DF91CF911F9133
S11306100F910895A0E0B0E0E0E1F3E00C94050749
S1130620AE014B5F5F4FFA0161917191AF0180910F
S1130630B3019091B4010E942003E2E00C942107DD
S1130640ABE0B0E0E6E2F3E00C94F5066C017B016C
S11306508A01FC0117821682838181FFCCC1CE01FD
S113066001963C01F6019381F70193FD859193FF77
S113067081917F01882309F4BAC1853239F493FD4D
S1130680859193FF81917F01853229F4B60190E031
S11306900E945B06E7CF912C212C312CFFE1F3154E
S11306A0D8F08B3279F038F4803279F08332A1F4C7
S11306B0232D20611DC08D3261F0803369F4232D18
S11306C0216016C0832D8260382EE32DE4603E2E17
S11306D02AC0F32DF8601DC037FC2DC020ED280F73
S11306E02A3040F08E32B9F436FC81C1232D2064C7
S11306F0322E19C036FE06C08AE0989E200D1124C1
S1130700922E11C0EAE02E9E200D1124222EF32DEC
S1130710F0623F2E08C08C3621F4832D8068382E79
S113072002C0883641F4F70193FD859193FF8191CE
S11307307F018111B3CF982F9F7D9554933028F476
S11307400C5F1F4F9FE399830DC0833631F08337CD
S113075071F0833509F059C021C0F8018081898383
S11307600E5F1F4F88248394912C530113C02801DA
S1130770F2E04F0E511CF801A080B18036FE03C098
S1130780692D70E002C06FEF7FEFC5010E94500633
S11307904C018201F32DFF773F2E16C0280122E081
S11307A0420E511CF801A080B18036FE03C0692DB1
S11307B070E002C06FEF7FEFC5010E943E064C015E
S11307C0F32DF0683F2E820133FC1BC0822D90E094
S11307D088169906B0F4B60180E290E00E945B06A8
S11307E02A94F4CFF50137FC859137FE81915F019E
S11307F0B60190E00E945B0621102A9421E0821A3F
S113080091088114910471F7E8C0843611F0893697
S113081041F5F80137FE07C06081718182819381BF
S11308200C5F1F4F08C060817181072E000C880B7C
S1130830990B0E5F1F4FF32DFF763F2E97FF09C0D4
S113084090958095709561957F4F8F4F9F4FF0687D
S11308503F2E2AE030E0A3010E949706882E8618D6
S113086045C0853731F4232D2F7EB22E2AE030E0A7
S113087025C0932D997FB92E8F36C1F018F4883591
S113088079F0B5C0803719F0883721F0B0C0E92F6E
S1130890E061BE2EB4FE0DC0FB2DF460BF2E09C076
S11308A034FE0AC0292F2660B22E06C028E030E0AC
S11308B005C020E130E002C020E132E0F801B7FEDB
S11308C007C060817181828193810C5F1F4F06C0D4
S11308D06081718180E090E00E5F1F4FA3010E9450
S11308E09706882E8618FB2DFF773F2E36FE0DC007
S11308F0232D2E7FA22E891458F434FE0BC032FC13
S113090009C0832D8E7EA82E05C0B82CA32C03C04D
S1130910B82C01C0B92CA4FE0FC0FE01E80DF11DD6
S11309208081803321F49A2D997EA92E09C0A2FEDC
S113093006C0B394B39404C08A2D867809F0B394A6
S1130940A3FC11C0A0FE06C0B21488F4280C922C9B
S11309509B180EC0B21460F4B60180E290E00E94CD
S11309605B06B394F7CFB21418F42B1802C0982C7A
S1130970212CA4FE10C0B60180E390E00E945B0627
S1130980A2FE17C0A1FC03C088E790E002C088E57E
S113099090E0B6010CC08A2D867859F0A1FE02C001
S11309A08BE201C080E2A7FC8DE2B60190E00E94D8
S11309B05B06891438F4B60180E390E00E945B067C
S11309C09A94F7CF8A94F301E80DF11D8081B60162
S11309D090E00E945B068110F5CF222009F442CEFC
S11309E0B60180E290E00E945B062A94F6CFF601FD
S11309F08681978102C08FEF9FEF2B96E2E10C94E2
S1130A0011070F931F93CF93DF93869F8001879FD6
S1130A10100D969F100D1124C8010E941D05EC01B4
S1130A20009729F0A80160E070E00E944906CE0119
S1130A30DF91CF911F910F9108950F931F93CF933F
S1130A40DF938230910510F482E090E0E091B901E7
S1130A50F091BA0120E030E0A0E0B0E0309719F165
S1130A60408151810281138148175907C8F08417C6
S1130A70950769F4109731F012960C931297139618
S1130A801C9327C00093B9011093BA0122C0211509
S1130A90310519F04217530718F49A01BD01EF010B
S1130AA0DF01F801DBCF21153105F9F0281B390BE3
S1130AB02430310580F48A819B816115710521F010
S1130AC0FB019383828304C09093BA018093B9019C
S1130AD0FE01329644C0FE01E20FF31F819391930D
S1130AE022503109398328833AC02091B7013091CB
S1130AF0B801232B41F4209102013091030130937A
S1130B00B8012093B7012091000130910101211512
S1130B10310541F42DB73EB74091040150910501D0
S1130B20241B350BE091B701F091B801E217F307EC
S1130B30A0F42E1B3F0B2817390778F0AC014E5F49
S1130B405F4F2417350748F04E0F5F1F5093B801CD
S1130B504093B7018193919302C0E0E0F0E0CF01AC
S1130B60DF91CF911F910F910895CF93DF93009759
S1130B7009F481C0FC01329713821282A091B90159
S1130B80B091BA01109781F420813181820F931FB3
S1130B902091B7013091B8012817390751F5F09326
S1130BA0B801E093B70167C0ED0120E030E0CE1753
S1130BB0DF0740F44A815B819E0141155105F1F044
S1130BC0EA01F5CFD383C28340815181840F951FFD
S1130BD0C817D90759F488819981840F951F029603
S1130BE0918380838A819B8193838283211531053C
S1130BF029F4F093BA01E093B9013DC0E901FB8304
S1130C00EA8349915991C40FD51FEC17FD0761F48C
S1130C1080819181840F951F0296E90199838883CD
S1130C20828193819B838A83E0E0F0E012968D9128
S1130C309C911397009719F0FD01DC01F7CF8D917A
S1130C409C9111979D012E5F3F4F820F931F20911E
S1130C50B7013091B8012817390769F4309729F49E
S1130C601092BA011092B90102C013821282B09399
S1130C70B801A093B701DF91CF910895FC010590CD
S1130C80615070400110D8F7809590958E0F9F1F8A
S1130C900895DC0101C06D9341505040E0F7089580
S1130CA0FC016150704001900110D8F78095909537
S1130CB08E0F9F1F08950F931F93CF93DF93FB0114
S1130CC0238121FD03C08FEF9FEF2CC022FF16C0AC
S1130CD046815781248135814217530744F4A0810A
S1130CE0B1819D012F5F3F4F318320838C932681F7
S1130CF037812F5F3F4F3783268314C08B01EC016C
S1130D00FB010084F185E02D0995892BE1F6D801DA
S1130D1016968D919C911797019617969C938E9396
S1130D201697CE01DF91CF911F910F910895FA018B
S1130D30AA27283051F1203181F1E8946F936E7F16
S1130D406E5F7F4F8F4F9F4FAF4FB1E03ED0B4E007
S1130D503CD0670F781F891F9A1FA11D680F791F48
S1130D608A1F911DA11D6A0F711D811D911DA11D59
S1130D7020D009F468943F912AE0269F1124301969
S1130D80305D3193DEF6CF010895462F4770405D04
S1130D904193B3E00FD0C9F7F6CF462F4F70405DB3
S1130DA04A3318F0495D31FD4052419302D0A9F70E
S1130DB0EACFB4E0A6959795879577956795BA9508
S1130DC0C9F700976105710508959B01AC010A2ECE
S1130DD006945795479537952795BA95C9F7620FA5
S1130DE0731F841F951FA01D08952F923F924F9249
S1130DF05F926F927F928F929F92AF92BF92CF92A7
S1130E00DF92EF92FF920F931F93CF93DF93CDB7AF
S1130E10DEB7CA1BDB0B0FB6F894DEBF0FBECDBF27
S1130E2009942A88398848885F846E847D848C84F8
S1130E309B84AA84B984C884DF80EE80FD800C8101
S1130E401B81AA81B981CE0FD11D0FB6F894DEBFE4
S10F0E500FBECDBFED010895F894FFCF54
S1130E5C0000BB0120006565690076616C20256487
S1130E6C0A0D004D435032353135206973204E4FF5
S1130E7C5420696E20636F6E666967206D6F6465BC
S1130E8C20616674657220726573657420210A0D85
S1130E9C004D435032353135206973204E4F542068
S1130EAC696E204C4F4F504241434B206D6F64652B
S1130EBC20616674657220726573657420210A0D55
S1130ECC0057726F6E6720434E46312076616C7505
S1130EDC6520210A0D0057726F6E6720434E46320F
S1130EEC2076616C756520210A0D0057726F6E6750
S1130EFC20434E46332076616C756520210A0D0023
S9030000FC
