S00E00004E4F44455F312E7372656360
S11300000C9438000C9457010C940B030C94550079
S11300100C9455000C9455000C9455000C94550008
S11300200C9455000C9455000C9455000C945500F8
S11300300C9455000C9455000C9455000C945500E8
S11300400C9455000C9455000C9455000C945500D8
S11300500C9455000C9455000C9455000C945500C8
S11300600C9455000C9455000C9455000C945500B8
S113007011241FBECFEFD4E0DEBFCDBF12E0A0E05D
S1130080B1E0E8E9F3E102C005900D92AE36B107A4
S1130090D9F722E0AEE6B2E001C01D92AB37B20759
S11300A0E1F70E942F030C94CA090C94000082E823
S11300B08FBD89E18EBD85E090E095BD84BD82E071
S11300C090E09BBD8ABD87B38B7F87BB88B3846078
S11300D088BB81B3806281BB08950F931F93CF9334
S11300E0DF93D82F10920114109200148BB7806400
S11300F08BBF80916E028823E1F38BB78F7B8BBF1C
S113010080E094E00E941C05182F80E094E00E9497
S11301101C05C82F80E094E00E941C05082F80E095
S113012094E00E941C05D13059F040F0D23019F00F
S1130130D33039F002C0802F04C003C0812F01C026
S11301408C2FDF91CF911F910F910895CF93DF935F
S113015080E00E946D00CFE6D2E0888381E00E94B7
S11301606D00898398811F928F931F929F9386E0DD
S113017091E09F938F930E94A8050F900F900F908A
S11301800F900F900F90DF91CF9108951F93CF930D
S1130190DF9380E00E946D00C82F81E00E946D0013
S11301A0E82F40916F024C1798F450E02C2F30E068
S11301B0241B350B64E6629FC001639F900D1124DC
S11301C06FEF70E0641B750B0E943505162F11C08C
S11301D0C41778F4642F70E02C2F30E0261B370B03
S11301E044E6429FC001439F900D11240E943505AF
S11301F0162F209170022E1790F430E0F0E0E21BED
S1130200F30B44E64E9FC0014F9F900D11246FEFF6
S113021070E0621B730B0E943505D62F11C0E217E4
S113022078F4622F70E02E2F30E0261B370B44E663
S1130230429FC001439F900D11240E943505D62F83
S1130240812F9D2FDF91CF911F910895292F092E82
S1130250000C330B33231CF43195219531092A30DA
S113026031052CF09A309CF4973F9CF00FC0282F56
S1130270082E000C990B99231CF4919581959109F2
S11302800A974CF02A304CF4273F4CF0089581E053
S1130290089582E0089580E0089584E0089583E05D
S11302A00895B29902C081E0089580E008951F92F4
S11302B00F920FB60F9211248F9381E080936E02F8
S11302C08F910F900FBE0F901F901895CF93DF93CF
S11302D0DC01E90111967C936E9312964C9312976C
S11302E090E00BC0692F70E0FE01E60FF71F30812C
S11302F0FD01E60FF71F33839F5F941798F3CD0139
S1130300DF91CF910895BF92CF92DF92EF92FF9247
S11303100F931F93CF93DF931F92CDB7DEB76C017A
S1130320B62EFC0160817181162F1295110F107E7B
S11303306F71772776956795769567957695679526
S11303400B2D0295007F81E3800F0E94C203612F71
S113035082E3800F0E94C203F601628185E3800F6D
S11303600E94C203BE016F5F7F4F80E30E94A0031F
S1130370898183FF1FC027C07601E10EF11CF701BC
S11303806381812F800F8A5C0E94C203F7018381FD
S1130390282F082E000C330B3F938F9383E291E0B8
S11303A09F938F930E94A8051F5F0F900F900F904B
S11303B00F9001C010E0F60182811817E8F281E87D
S11303C08B0D0E94D8030F90DF91CF911F910F9155
S11303D0FF90EF90DF90CF90BF900895CF92DF927F
S11303E0FF920F931F93CF93DF9300D000D0CDB72C
S11303F0DEB76C01F62EFF0CFF0CFF0CFF0CBE01E8
S11304006F5F7F4F82E68F0D0E94A003BE016E5F77
S11304107F4F81E68F0D0E94A003BE016D5F7F4F69
S113042085E68F0D0E94A0030B810F700B83298139
S11304302295269527708A8190E0880F991F880F4E
S1130440991F880F991F9927822BF6019183808326
S1130450028310E00EC0812F8F0DBE016C5F7F4FB1
S11304608A590E94A003F601E10FF11D8C81838358
S11304701F5F101780F3C6010F900F900F900F901D
S1130480DF91CF911F910F91FF90DF90CF9008954E
S11304900F931F93CF93DF93CDB7DEB766970FB655
S11304A0F894DEBF0FBECDBF0E94E103082F80FF8A
S11304B041C060E0CE010C960E94EE018BE0FE018B
S11304C03C96DE01119601900D928A95E1F78A819E
S11304D08F9389818F938DE291E09F938F930E94F4
S11304E0A8050F900F900F900F9010E018C0E4E053
S11304F0F0E0EC0FFD1FE10FF11D8081282F082E85
S1130500000C330B3F938F938AE491E09F938F9376
S11305100E94A8051F5F0F900F900F900F908B8182
S1130520181728F38FEC91E09F938F930E94A805EE
S11305300F900F9001FF41C061E0CE010C960E9424
S1130540EE018BE0FE013C96DE01119601900D92C6
S11305508A95E1F78A818F9389818F938EE491E064
S11305609F938F930E94A8050F900F900F900F9068
S113057010E018C0E4E0F0E0EC0FFD1FE10FF11D06
S11305808081282F082E000C330B3F938F938BE62A
S113059091E09F938F930E94A8051F5F0F900F9087
S11305A00F900F908B81181728F38FEC91E09F9395
S11305B08F930E94A8050F900F9003FF08C08EE64A
S11305C091E09F938F930E94A8050F900F9002FFD4
S11305D008C083E791E09F938F930E94A8050F9032
S11305E00F9004FF08C081E991E09F938F930E94CC
S11305F0A8050F900F9040E06FEF8CE20E94ED038E
S113060066960FB6F894DEBF0FBECDBFDF91CF91D3
S11306101F910F9108951F920F920FB60F921124FC
S11306202F933F934F935F936F937F938F939F93F6
S1130630AF93BF93EF93FF930E944802FF91EF9112
S1130640BF91AF919F918F917F916F915F914F91E6
S11306503F912F910F900FBE0F901F901895CF933D
S1130660DF93CDB7DEB76E970FB6F894DEBF0FBE3B
S1130670CDBF8FE190E00E9428050E9415050E94DD
S113068057000E94B7040E946E0478940E94A6004A
S11306900E94C600082F192F83E00E946D00D82EF7
S11306A0802F912F0E942601F82E812F012E000CFD
S11306B0990B9F931F93802F002E000C990B9F93EF
S11306C00F938FEA91E09F938F930E94A8051F9246
S11306D0FF9287EC91E09F938F930E94A8057E017F
S11306E08CE0E80EF11C88E0F70111928A95E9F795
S11306F00C871D870E9451018E87DF86970144E095
S113070060E070E0CE0144960E9466018BE0FE0139
S11307107496DE01119601900D928A95E1F760E0DE
S1130720CE0101960E9483018FEF9FE20197F1F7BA
S113073000C000000FB6F894DEBF0FBECDBFA8CF37
S11307401F93CF93DF93182FEB0188B38F7E88BB61
S113075083E00E940005812F0E9400050E94040589
S1130760888388B3806188BBDF91CF911F910895FE
S113077088B38F7E88BB80EC0E94000588B38061BB
S113078088BB0895CF93DF93D82FC62F88B38F7E6D
S113079088BB82E00E9400058D2F0E9400058C2FEB
S11307A00E94000588B3806188BBDF91CF910895D2
S11307B098B39F7E98BB0E94000588B3806188BB74
S11307C0089588B38F7E88BB80EA0E9400050E944A
S11307D0040598B3906198BB08951F93CF93DF935A
S11307E0182FD62FC42F88B38F7E88BB85E00E9434
S11307F00005812F0E9400058D2F0E9400058C2F7B
S11308000E94000588B3806188BBDF91CF911F915E
S1130810089581B3877F81BB8BB780688BBF85B711
S11308208B7F85BF85B7886085BF4FE06FEF8BE214
S11308300E94ED030895CF93DF931F92CDB7DEB7E7
S113084043E06FEF8AE20E94ED0341EB6FEF89E230
S11308500E94ED0345E067E088E20E94ED03BE01DB
S11308606F5F7F4F8AE20E94A0038981833051F039
S113087082ED91E09F938F930E94A8050F900F90B3
S11308808FEF28C0BE016F5F7F4F89E20E94A003F3
S11308908981813B51F087EE91E09F938F930E9471
S11308A0A8050F900F908FEF15C0BE016F5F7F4FAB
S11308B088E20E94A00389818770853051F08CEF13
S11308C091E09F938F930E94A8050F900F908FEF54
S11308D001C080E00F90DF91CF910895CF93DF9313
S11308E01F92CDB7DEB70E940E050E94B803BE0169
S11308F06F5F7F4F8EE00E94A0038981807E8038E5
S113090051F081E192E09F938F930E94A8050F908C
S11309100F908FEF25C00E941B040E94090440E63B
S113092060E680E60E94ED0340E660E680E70E9410
S1130930ED0340E060EE8FE00E94ED03BE016F5FC7
S11309407F4F8EE00E94A0038981807E49F08FE36F
S113095092E09F938F930E94A8050F900F908FEFC2
S11309600F90DF91CF9108958093001008958EEA3F
S11309700E94B40481EA0E94B4048AED0E94B40483
S113098082E10E94B40488EC0E94B40488EA0E94C4
S1130990B4048FE30E94B40485ED0E94B40480E89B
S11309A00E94B40481E80E94B40480E50E94B40467
S11309B089ED0E94B40481E20E94B40480E20E94A2
S11309C0B40482E00E94B4048BED0E94B40480E37A
S11309D00E94B4048DEA0E94B40480E00E94B4042E
S11309E084EA0E94B40486EA0E94B4048FEA0E9456
S11309F0B40480E20E94B40482E00E94B404089526
S1130A008FB9779BFECF08958AEA8FB9779BFECF83
S1130A108FB1089588B3806188BB089580EB87BB4C
S1130A2081E58DB90E940A05089585B7806885BF60
S1130A3080B7806280BF0895905FFC018081089533
S1130A405D9BFECF8CB908955F9BFECF8CB108955A
S1130A5090BD89B988E18AB98EE880BD64E275E009
S1130A6080E295E00E945D05089597FB072E16F439
S1130A70009407D077FD09D00E94490507FC05D0F2
S1130A803EF4909581959F4F0895709561957F4FA1
S1130A900895AA1BBB1B51E107C0AA1FBB1FA617C1
S1130AA0B70710F0A61BB70B881F991F5A95A9F713
S1130AB080959095BC01CD0108950F931F93CF931A
S1130AC0DF93009731F46115710519F480E090E02B
S1130AD03AC08B01EC016EE070E081E090E00E948E
S1130AE09F07FC01892B91F380E88383011511058D
S1130AF071F01387028781E883838091710290915A
S1130B007202892B21F4F0937202E0937102209710
S1130B10C9F0D187C0878381826083838091730207
S1130B2090917402892B71F4F0937402E093730230
S1130B308091750290917602892B21F4F0937602CC
S1130B40E0937502CF01DF91CF911F910F9108952A
S1130B50A0E0B0E0EEEAF5E00C94A309AE014B5F2F
S1130B605F4FFA0161917191AF018091730290918D
S1130B7074020E94BE05E2E00C94BF09ABE0B0E051
S1130B80E4ECF5E00C9493096C017B018A01FC010F
S1130B9017821682838181FFCCC1CE0101963C016C
S1130BA0F6019381F70193FD859193FF81917F0174
S1130BB0882309F4BAC1853239F493FD859193FFF2
S1130BC081917F01853229F4B60190E00E94F908F1
S1130BD0E7CF912C212C312CFFE1F315D8F08B3287
S1130BE079F038F4803279F08332A1F4232D206136
S1130BF01DC08D3261F0803369F4232D216016C04D
S1130C00832D8260382EE32DE4603E2E2AC0F32D1E
S1130C10F8601DC037FC2DC020ED280F2A3040F0AD
S1130C208E32B9F436FC81C1232D2064322E19C0D2
S1130C3036FE06C08AE0989E200D1124922E11C023
S1130C40EAE02E9E200D1124222EF32DF0623F2E79
S1130C5008C08C3621F4832D8068382E02C0883673
S1130C6041F4F70193FD859193FF81917F018111F7
S1130C70B3CF982F9F7D9554933028F40C5F1F4F6A
S1130C809FE399830DC0833631F0833771F0833548
S1130C9009F059C021C0F801808189830E5F1F4F7C
S1130CA088248394912C530113C02801F2E04F0E41
S1130CB0511CF801A080B18036FE03C0692D70E09C
S1130CC002C06FEF7FEFC5010E94EE084C01820164
S1130CD0F32DFF773F2E16C0280122E0420E511C4F
S1130CE0F801A080B18036FE03C0692D70E002C017
S1130CF06FEF7FEFC5010E94DC084C01F32DF06813
S1130D003F2E820133FC1BC0822D90E08816990689
S1130D10B0F4B60180E290E00E94F9082A94F4CF7E
S1130D20F50137FC859137FE81915F01B60190E0B2
S1130D300E94F90821102A9421E0821A9108811452
S1130D40910471F7E8C0843611F0893641F5F80151
S1130D5037FE07C060817181828193810C5F1F4FD0
S1130D6008C060817181072E000C880B990B0E5FFF
S1130D701F4FF32DFF763F2E97FF09C09095809566
S1130D80709561957F4F8F4F9F4FF0683F2E2AE0FB
S1130D9030E0A3010E943509882E861845C08537A6
S1130DA031F4232D2F7EB22E2AE030E025C0932D7E
S1130DB0997FB92E8F36C1F018F4883579F0B5C013
S1130DC0803719F0883721F0B0C0E92FE061BE2EDA
S1130DD0B4FE0DC0FB2DF460BF2E09C034FE0AC062
S1130DE0292F2660B22E06C028E030E005C020E19D
S1130DF030E002C020E132E0F801B7FE07C06081B4
S1130E007181828193810C5F1F4F06C06081718163
S1130E1080E090E00E5F1F4FA3010E943509882EE9
S1130E208618FB2DFF773F2E36FE0DC0232D2E7F17
S1130E30A22E891458F434FE0BC032FC09C0832D51
S1130E408E7EA82E05C0B82CA32C03C0B82C01C0DC
S1130E50B92CA4FE0FC0FE01E80DF11D8081803382
S1130E6021F49A2D997EA92E09C0A2FE06C0B3943E
S1130E70B39404C08A2D867809F0B394A3FC11C0FE
S1130E80A0FE06C0B21488F4280C922C9B180EC045
S1130E90B21460F4B60180E290E00E94F908B394C1
S1130EA0F7CFB21418F42B1802C0982C212CA4FEEE
S1130EB010C0B60180E390E00E94F908A2FE17C0BA
S1130EC0A1FC03C088E790E002C088E590E0B60189
S1130ED00CC08A2D867859F0A1FE02C08BE201C0B5
S1130EE080E2A7FC8DE2B60190E00E94F908891423
S1130EF038F4B60180E390E00E94F9089A94F7CFA1
S1130F008A94F301E80DF11D8081B60190E00E94FE
S1130F10F9088110F5CF222009F442CEB60180E20F
S1130F2090E00E94F9082A94F6CFF6018681978111
S1130F3002C08FEF9FEF2B96E2E10C94AF090F9361
S1130F401F93CF93DF93869F8001879F100D969FF9
S1130F50100D1124C8010E94BB07EC01009729F071
S1130F60A80160E070E00E94E708CE01DF91CF9114
S1130F701F910F9108950F931F93CF93DF938230A6
S1130F80910510F482E090E0E0917902F0917A0208
S1130F9020E030E0A0E0B0E0309719F140815181C9
S1130FA00281138148175907C8F08417950769F41B
S1130FB0109731F012960C93129713961C9327C036
S1130FC00093790210937A0222C02115310519F099
S1130FD04217530718F49A01BD01EF01DF01F8012C
S1130FE0DBCF21153105F9F0281B390B24303105ED
S1130FF080F48A819B816115710521F0FB01938343
S1131000828304C090937A0280937902FE0132961F
S113101044C0FE01E20FF31F8193919322503109E2
S1131020398328833AC02091770230917802232BA8
S113103041F420910201309103013093780220930E
S1131040770220910001309101012115310541F40D
S11310502DB73EB74091040150910501241B350B77
S1131060E0917702F0917802E217F307A0F42E1BC7
S11310703F0B2817390778F0AC014E5F5F4F2417F8
S1131080350748F04E0F5F1F509378024093770264
S11310908193919302C0E0E0F0E0CF01DF91CF9122
S11310A01F910F910895CF93DF93009709F481C0A6
S11310B0FC01329713821282A0917902B0917A02D4
S11310C0109781F420813181820F931F2091770240
S11310D0309178022817390751F5F0937802E0939C
S11310E0770267C0ED0120E030E0CE17DF0740F45F
S11310F04A815B819E0141155105F1F0EA01F5CF6A
S1131100D383C28340815181840F951FC817D907A7
S113111059F488819981840F951F02969183808365
S11311208A819B81938382832115310529F4F0936D
S11311307A02E09379023DC0E901FB83EA83499195
S11311405991C40FD51FEC17FD0761F4808191817B
S1131150840F951F0296E901998388838281938184
S11311609B838A83E0E0F0E012968D919C91139723
S1131170009719F0FD01DC01F7CF8D919C91119737
S11311809D012E5F3F4F820F931F20917702309174
S113119078022817390769F4309729F410927A02F3
S11311A01092790202C013821282B0937802A09343
S11311B07702DF91CF910895FC0105906150704052
S11311C00110D8F7809590958E0F9F1F0895DC012C
S11311D001C06D9341505040E0F70895FC01615007
S11311E0704001900110D8F7809590958E0F9F1F45
S11311F008950F931F93CF93DF93FB01238121FD68
S113120003C08FEF9FEF2CC022FF16C04681578189
S1131210248135814217530744F4A081B1819D0193
S11312202F5F3F4F318320838C93268137812F5F3B
S11312303F4F3783268314C08B01EC01FB010084EC
S1131240F185E02D0995892BE1F6D80116968D914B
S11312509C911797019617969C938E931697CE019F
S1131260DF91CF911F910F910895FA01AA27283099
S113127051F1203181F1E8946F936E7F6E5F7F4F5F
S11312808F4F9F4FAF4FB1E03ED0B4E03CD0670FDB
S1131290781F891F9A1FA11D680F791F8A1F911D2E
S11312A0A11D6A0F711D811D911DA11D20D009F47E
S11312B068943F912AE0269F11243019305D3193C0
S11312C0DEF6CF010895462F4770405D4193B3E0A9
S11312D00FD0C9F7F6CF462F4F70405D4A3318F050
S11312E0495D31FD4052419302D0A9F7EACFB4E001
S11312F0A6959795879577956795BA95C9F70097B9
S11313006105710508959B01AC010A2E0694579559
S1131310479537952795BA95C9F7620F731F841FB0
S1131320951FA01D08952F923F924F925F926F9246
S11313307F928F929F92AF92BF92CF92DF92EF9261
S1131340FF920F931F93CF93DF93CDB7DEB7CA1BE2
S1131350DB0B0FB6F894DEBF0FBECDBF09942A880D
S1131360398848885F846E847D848C849B84AA84B5
S1131370B984C884DF80EE80FD800C811B81AA8142
S1131380B981CE0FD11D0FB6F894DEBF0FBECDBF0D
S10B1390ED010895F894FFCF6C
S113139800007B02200078206F66667365743A202B
S11313A825642C2079206F66667365743A20256459
S11313B80A0D00646174612025640A0D00425546D3
S11313C8464552303A204944203D2025642C204D7E
S11313D8455353414745203D20002564200042558C
S11313E846464552313A204944203D2025642C2064
S11313F84D455353414745203D2000256400796FEE
S11314080A0D004255464645522030206973206330
S1131418757272656E746C792062757379200A0D21
S1131428004255464645522031206973206375723F
S113143872656E746C792062757379200A0D005890
S113144820706F733A2025642C205920706F733AEA
S1131458202564200A0D004469723A202564200A74
S11314680D0057726F6E6720434E46312076616CCB
S1131478756520210A0D0057726F6E6720434E462A
S1131488322076616C756520210A0D0057726F6EE3
S11314986720434E46332076616C756520210A0D1A
S11314A8004D435032353135206973204E4F542056
S11314B8696E20636F6E666967206D6F646520616D
S11314C86674657220726573657420210A0D004D77
S11314D8435032353135206973204E4F5420696E9C
S11314E820204E4F524D414C206D6F64652061663B
S11114F874657220726573657420210A0D00FC
S9030000FC
