:0200000280007C
:10000000C80800208903080085030800850308004C
:100010008503080085030800850308000000000030
:100020000000000000000000000000008503080040
:100030008503080000000000850308008503080010
:100040008503080085030800850308008503080070
:100050008503080085030800850308008503080060
:10006000250908008503080000000000850308003A
:1000700085030800850308008503080000000000D0
:1000800000000000850308008503080085030800C0
:100090008503080085030800850308008503080020
:1000A00085030800000000008503080085030800A0
:1000B0008503080085030800850308008503080000
:1000C00085030800850308008503080085030800F0
:1000D00085030800850308008503080085030800E0
:1000E000850308008503080085030800F90208005D
:1000F0008503080010B5054C237833B9044B13B1C0
:100100000448AFF300800123237010BD34040020A5
:1001100000000000800B08000C4B43B10C4810B5E8
:100120000C49AFF300800C48036823B910BD0A489E
:10013000036833B97047094B002BF7D0BDE8104076
:100140001847064B002BF5D0184700BF00000000F1
:10015000800B080038040020800B0800000000001D
:10016000034B80225A601A6102221A60704700BF56
:1001700000000C40014BD86E80B2704700000C406C
:10018000F0B45718082FD4BF00230123082998BFC3
:10019000082A5CD80D46002B59D12E4A136823F04B
:1001A0000103136013692C4B4FF440745C641C6FA3
:1001B00024F003041C6703245C605C66A3F5006301
:1001C000264CC3F80C41D3F8004144F40064C3F852
:1001D00000415061002419E01E4801F110035B0149
:1001E000C2180026566000EB41124FF00056C2F8CC
:1001F00008624FF08076C650D2F81C3243F40003F8
:10020000C2F81C3201238B401C430131B942E3DDAB
:1002100000230DE00F4901EB43124FF00050C2F8EC
:10022000080203F1100252014FF040708850013370
:10023000AB42EFDB074B5C604FF40061084A516052
:100240001A6842F001021A600020F0BC70470120D9
:10025000FBE700BF00400B40000E0E402B100010CB
:1002600000E100E008B502220121014B984708BDDA
:10027000810108004B0103F1402303F53023D3F83B
:10028000103213F4000F33D070B44B0103F140234C
:1002900003F53023D3F81442D3F81822D3F80852C8
:1002A000C5F38A450580D3F81052C5F30345857020
:1002B000002303E0C618F270120A0133AB4205DADC
:1002C000032BF7DCC618F470240AF6E7094B01F19A
:1002D000100252014FF08070985003EB4111D1F899
:1002E0001C3243F40003C1F81C32002070BC70477C
:1002F0000120704700400B4010B584B01B4B1C69B7
:1003000014F0060F25D014F0020F0FD114F0040FD3
:1003100011D0022101A8164B9847BDF80420154BB7
:100320001A809DF806009870002310E0012101A8B2
:100330000F4B9847F1E71048104B9847EDE704AA98
:100340001A4412F9091C0B4A1A44D1700133834232
:10035000F5DB14F0010F02D00122044B9A604FF438
:100360000062074BC3F8842104B010BD00400B406D
:100370007502080050040020FC0A080075080800F7
:1003800000E100E0FEE7000008B5114B114A9A4277
:1003900009D00F4B0F4A03E011681960043304328F
:1003A0000D498B42F8D30D4B02E000221A60043352
:1003B0000B4A9342F9D30B4B23F0604323F07F03A6
:1003C000094A9360094B9847094B9847FEE700BFDD
:1003D00000000020800B08003404002034040020BA
:1003E000C40400200000080000ED00E08D090800B2
:1003F000990408004FF48063204A136002F50072EC
:1004000013601F4B1B6A13F0807F07D11D4A1C4BE2
:100410001A621B4B9B6E13F0010FFAD01A4A184B4D
:100420001A62174B9B6E13F4803FFAD0144A136B79
:1004300023F0030343F001031363114B9B6E13F08E
:10044000080FFAD0114A0E4B9A620D4B9B6E13F0B7
:10045000020FFAD011220A4B1A63094B9B6E13F05C
:10046000080FFAD01222064B1A63054B9B6E13F04D
:10047000080FFAD0064A074B1A607047000A0E4070
:1004800000060E400908370009083701013F0D201A
:1004900000BD01050000002008B5114B9847114828
:1004A000114B9847114B98474FF40042104B5A603C
:1004B000104B9847104B9847104B98476420104BAF
:1004C0009847104B984703E001330F4A9342FBDDF6
:1004D0000E4B984781B20E480E4B98470023F4E725
:1004E000F503080065012900650208009908080065
:1004F000501A0E40F9020800BD0508001905080051
:100500007D050800610108001FBCBE0075010800E0
:10051000280B080075080800154AD2F8003143F08E
:100520001003C2F80031134B5A6842F400225A609B
:100530001A6F42F400221A670F4BD3F8A02242F040
:100540000702C3F8A022D3F8AC2242F44D5242F085
:100550000502C3F8AC22D3F8A42242F43D5242F083
:100560002D02C3F8A4225A6842F020025A60704754
:1005700000060E4000120E4000400940642805DCD1
:1005800010F1640F03DA6FF0630000E06420084BA1
:1005900003FB00F0074B83FB0023C017C0EB631085
:1005A00000F53D502D30044BC3F8A802704700BF42
:1005B000A2FEFFFF1F85EB5100400940084B1A685F
:1005C00042F480321A601A6942F480321A611A6E5B
:1005D00042F480321A661A6B42F480321A63704712
:1005E000000E0E4008B5C8B2014B984708BD00BFC9
:1005F000010908002DE9F04107460E46151E02DDEF
:100600000A46002104E04FF020080EE001310132DB
:1006100010780028FAD1A94201DA6D1A00E000250D
:1006200013F0020F06D14FF0200813F001040AD096
:10063000002410E04FF03008F7E7414638460D4BF4
:1006400098470134013D002DF7DC04E03846094BA2
:1006500098470134013631780029F7D105E0414649
:100660003846044B98470134013D002DF7DC204605
:10067000BDE8F081E5050800F0B585B007460C98A7
:1006800051B11E460C4613B10A2A12D0002604AD01
:10069000002305F8013D18E030238DF804300023D5
:1006A0008DF805300B9B0A9A01A938461B4CA047D0
:1006B00029E0002901DB0026E9E74C420126E6E7B4
:1006C000303305F8013DB4FBF2F44CB1B4FBF2F366
:1006D00002FB1343092BF3DDA0F13A010B44EFE7D2
:1006E00056B10A9B1BB10B9B13F0020F0DD12D23AA
:1006F00005F8013C013D00260B9B0A9A2946384625
:10070000064CA047304405B0F0BD2D213846044BBF
:1007100098470A9B013B0A93EEE700BFF5050800E6
:10072000E5050800F0B589B006460C46059200259F
:1007300081E0A21C01238BE0013443F00203227804
:10074000302AF9D0002206E002EB82025000A1F12B
:100750003002024401342178A1F13000C0B20928EE
:10076000F2D9732918D0642922D078292FD058299A
:100770003CD0752949D063295CD10599081D0590A5
:1007800009788DF81C1000218DF81D1007A930463E
:10079000344FB84705444DE00599081D0590096898
:1007A00021B130462F4FB847054443E02E49F8E7C2
:1007B0000599081D05900968612002900193009237
:1007C00001230A223046294FB847054432E00599F3
:1007D000081D059009686120029001930092002392
:1007E00010223046214FB847054423E00599081DE3
:1007F0000590096841200290019300920023102285
:1008000030461A4FB847054414E00599081D059075
:100810000968612002900193009200230A22304669
:10082000124FB847054405E0144621783046104B76
:10083000984701350134237863B1252BF5D1621C2B
:1008400063783BB1252BEFD02D2B3FF472AF002303
:10085000144674E716B1336800221A70284609B0AE
:10086000F0BD00BFF5050800300B08007906080050
:10087000E50508000FB400B583B004AA52F8041BC4
:1008800001920020034B984703B05DF804EB04B0DD
:10089000704700BF25070800164B00221A705A70D7
:1008A000154B4FF44071596459601A6F186F02402C
:1008B00022F440721A6759664FF48072A3F5006300
:1008C0001A6103F50073AC21196040F2232119620B
:1008D0004FF40061596040F20221C3F820114FF03B
:1008E000FF31D960E121996004490A6050221A6001
:1008F000704700BF5C040020000E0E4000E100E0E5
:10090000074B5B6913F0020F08D0054BD861044B0D
:100910005B6913F4007FFAD0002070470120704714
:1009200000080E4008B5154B5B6913F0E00F03D0CB
:100930004FF4A871114A116013F0010F12D0104842
:100940004278531C594203F03F0301F03F0158BF66
:100950004B4201788B4206D00849886908490A440D
:1009600090704B7008BD0748074B9847044B597867
:10097000024A92690B449A7008BD00BF00080E40FD
:100980005C040020380B08007508080070B50F4E95
:100990000F4D761BB61018BF002405D0013455F852
:1009A000043B9847A642F9D10A4E0B4D00F0D6F809
:1009B000761BB61018BF002406D0013455F8043B4E
:1009C0009847A642F9D170BD70BD00BF680B080002
:1009D000680B0800700B0800680B0800024B13B18D
:1009E000024800F005B8704700000000FD0908004B
:1009F000002301461A46184600F01EB838B50A4CC6
:100A00000A4D641BA4100AD004F18043013B05EB9E
:100A10008305013C55F804399847002CF9D1BDE80D
:100A2000384000F0A5B800BF800B08007C0B080020
:100A3000704700BF704700BF2DE9F8432C4D0646B4
:100A4000286898460F469146FFF7F2FF294B1C682D
:100A5000D4F84831002B3ED05A681F2A1CDC02F122
:100A6000010E76B1012103EB8204C4F88890D3F81B
:100A7000880191400843022EC3F88801C4F8088118
:100A800023D00232C3F804E0286843F82270FFF74D
:100A9000D1FF0020BDE8F883174B0BB34FF4C870AB
:100AA000AFF300800346D8B10020D4F848114FF0CE
:100AB000010E586019600246C4F84831C3F8880135
:100AC000C3F88C01002EDCD0CCE7D3F88C010143B5
:100AD000C3F88C11D5E704F5A673C4F84831BBE719
:100AE0002868FFF7A7FF4FF0FF30BDE8F88300BF8D
:100AF00030040020580B08000000000043414E3035
:100B0000206D6573736167652061727269766564D3
:100B100020696E206E6F6E2D75736564206D61693E
:100B20006C626F780A0D000025640A0D0000000059
:100B3000286E756C6C2900004552523A205541527E
:100B4000542052582062756666657220697320666B
:100B5000756C6C0A0D00000008000020F8B500BF9D
:100B6000F8BC08BC9E467047DD0908001901080062
:100B7000F8B500BFF8BC08BC9E467047F5000800F9
:100B800000093D000000000000000000F402002009
:100B90005C030020C40300200000000000000000EF
:100BA0000000000000000000000000000000000045
:100BB0000000000000000000000000000000000035
:100BC0000000000000000000000000000000000025
:100BD0000000000000000000000000000000000015
:100BE0000000000000000000000000000000000005
:100BF00000000000000000000000000000000000F5
:100C000000000000000000000000000000000000E4
:100C100000000000000000000000000000000000D4
:100C200000000000000000000000000000000000C4
:100C300001000000000000000E33CDAB34126DE661
:100C4000ECDE05000B0000000000000000000000CA
:100C50000000000000000000000000000000000094
:100C60000000000000000000000000000000000084
:100C70000000000000000000000000000000000074
:100C80000000000000000000000000000000000064
:040FB000A004002079
:040000038000000079
:00000001FF
