:100000000C94B4010C94EE010C94D1010C94D10128
:100010000C94D1010C94D1010C94D1010C94D10118
:100020000C94D1010C94D1010C94D1010C94D10108
:100030000C94D1010C94D1010C94D1010C94D101F8
:100040000C94D1010C94D1010C94D1010C94D101E8
:100050000C94D1010C94D1010C94D1010C94D101D8
:100060000C94D1010C94D1010C94D1010C94D101C8
:10007000000000000000000000065F5F06000000B6
:100080000007070007070000147F7F147F7F14001C
:10009000242E6B6B3A120000466630180C66620024
:1000A000307A4F5D377A48000407030000000000F3
:1000B000001C3E63410000000041633E1C00000044
:1000C000082A3E1C1C3E2A0808083E3E080800007C
:1000D00000A0E06000000000080808080808000010
:1000E00000006060000000006030180C0603010092
:1000F0003E7F594D7F3E000042427F7F40400000DE
:10010000627359496F660000226349497F360000D7
:10011000181C16137F7F1000276745457D390000A6
:100120003C7E4B4979300000036371190F070000D2
:10013000367F49497F360000064F49693F1E00005F
:1001400000006C6C0000000000A0EC6C00000000DF
:10015000081C366341000000141414141414000029
:10016000004163361C080000020351590F060000CD
:100170003E7F415D5D1F1E007C7E13137E7C000070
:10018000417F7F49497F36001C3E63414163220025
:10019000417F7F41637F1C00417F7F495D41630058
:1001A000417F7F491D0103001C3E63415173720072
:1001B0007F7F08087F7F000000417F7F41000000B3
:1001C000307040417F3F0100417F7F081C77630012
:1001D000417F7F41406070007F7F060C067F7F007B
:1001E0007F7F060C187F7F001C3E6341633E1C002E
:1001F000417F7F49090F06001E3F21717F5E00008D
:10020000417F7F19396F460026674D597B320000C8
:1002100003417F7F410300007F7F40407F7F0000DC
:100220001F3F60603F1F00007F7F3018307F7F00DE
:1002300063771C081C776300074F78784F0700002E
:100240006773594D47637100007F7F414100000093
:100250000103060C183060000041417F7F00000060
:10026000080C0603060C0800808080808080808057
:100270000000030704000000207454543C78400040
:10028000413F7F44447C3800387C44446C28000063
:10029000307848493F7F4000387C54545C18000057
:1002A000487E7F490302000098BCA4A4F87C0400A7
:1002B000417F7F08047C780000447D7D4000000081
:1002C00040C484FD7D000000417F7F10386C4400F5
:1002D00000417F7F400000007C7C0C180C7C780083
:1002E0007C7C04047C780000387C44447C3800002A
:1002F00084FCF8A4243C1800183C24A4F8FC8400D6
:10030000447C78441C180000485C54547424000059
:1003100000043E7F442400003C7C40403C7C400084
:100320001C3C60603C1C00003C7C6030607C3C00FD
:10033000446C3810386C44009CBCA0A0FC7C0000CD
:100340004C64745C4C64000008083E774141000036
:1003500000000077770000004141773E0808000068
:10036000020301030203010011241FBECFEFD4E0FA
:10037000DEBFCDBF11E0A0E0B1E0E4E8F9E002C0EB
:1003800005900D92A630B107D9F721E0A6E0B1E0C3
:1003900001C01D92A131B207E1F70E94FD010C944A
:1003A000C0040C94000082E88FBD89E18EBD85E019
:1003B00090E095BD84BD82E090E09BBD8ABD81B395
:1003C000806281BB08958BB780648BBF85B78160E5
:1003D00085BF85B7826085BF789408951F920F927C
:1003E0000FB60F9211248F9381E0809306018F91B5
:1003F0000F900FBE0F901F9018958FE190E00E9414
:1004000024030E9415030E94E3010E94D3010E946D
:1004100031020E94E5020E94A80284E70E94F602CF
:1004200081E090E00E94AF022FEF8FEF9EE021501D
:1004300080409040E1F700C0000081E090E00E9421
:10044000CA022FEF8FEF9EE0215080409040E1F7ED
:1004500000C00000E5CF8093001008958093001243
:1004600008958EEA0E942B0281EA0E942B028AEDF7
:100470000E942B0282E10E942B0288EC0E942B0238
:1004800088EA0E942B028FE30E942B0285ED0E94D6
:100490002B0280E80E942B0281E80E942B0280E55B
:1004A0000E942B0289ED0E942B0281E20E942B0206
:1004B00080E20E942B0282E00E942B028BED0E94C0
:1004C0002B0280E30E942B028DEA0E942B0280E027
:1004D0000E942B0284EA0E942B0286EA0E942B02D1
:1004E0008FEA0E942B0280E20E942B0282E00E948F
:1004F0002B02089580550E942B020895CF93DF931D
:10050000EC018F709078992324F40197806F9F6F8E
:1005100001960E942B02CE01DD230CF40F969595D7
:100520008795959587959595879595958795805FFE
:100530000E942B02DF91CF910895CF93DF93EB01BF
:100540000E947A02CE010E947E02DF91CF9108952F
:1005500060E070E080E090E00E949D0208950F93BB
:100560001F93CF93DF938C0160E070E00E949D02A7
:10057000C0E0D0E004C08FEF0E942E022196C03868
:10058000D105CCF3C8010E947A02DF91CF911F916F
:100590000F9108950F931F93CF93DF938C0160E029
:1005A00070E00E949D02C0E0D0E004C080E00E94A4
:1005B0002E022196C038D105CCF3C8010E947A02E0
:1005C000DF91CF911F910F910895CF93DF93C0E0FA
:1005D000D0E004C0CE010E94CA022196C830D105E5
:1005E000CCF30E94A802DF91CF9108951F93CF937F
:1005F000DF9310EE180FC0E0D0E010C0E12FF0E064
:10060000EE0FFF1FEE0FFF1FEE0FFF1FEC0FFD1F82
:10061000E059FF4F84910E942E022196C830D105E7
:100620006CF3DF91CF911F91089585B7806885BFE6
:1006300080B7806280BF08955D9BFECF8CB908951E
:100640005F9BFECF8CB1089590BD89B988E18AB9CE
:100650008EE880BD60E273E08CE193E00E9431039C
:1006600008950F931F93CF93DF93009731F4611593
:10067000710519F480E090E03AC08B01EC016EE066
:1006800070E081E090E00E947C03FC01892B91F3F3
:1006900080E883830115110571F01387028781E8D3
:1006A00083838091070190910801892B21F4F093B5
:1006B0000801E09307012097C9F0D187C0878381A3
:1006C000826083838091090190910A01892B71F4E2
:1006D000F0930A01E093090180910B0190910C01C4
:1006E000892B21F4F0930C01E0930B01CF01DF91F2
:1006F000CF911F910F9108950F931F93CF93DF9385
:10070000869F8001879F100D969F100D1124C801B0
:100710000E949803EC01009729F0A80160E070E0C6
:100720000E94B904CE01DF91CF911F910F910895DE
:100730000F931F93CF93DF938230910510F482E0E3
:1007400090E0E0910F01F091100120E030E0A0E096
:10075000B0E0309719F1408151810281138148172F
:100760005907C8F08417950769F4109731F012966D
:100770000C93129713961C9327C000930F011093AC
:10078000100122C02115310519F04217530718F442
:100790009A01BD01EF01DF01F801DBCF2115310521
:1007A000F9F0281B390B2430310580F48A819B81B4
:1007B0006115710521F0FB019383828304C090933E
:1007C000100180930F01FE01329644C0FE01E20F3A
:1007D000F31F8193919322503109398328833AC0C2
:1007E00020910D0130910E01232B41F42091020143
:1007F0003091030130930E0120930D0120910001EF
:10080000309101012115310541F42DB73EB74091DA
:10081000040150910501241B350BE0910D01F0916D
:100820000E01E217F307A0F42E1B3F0B2817390720
:1008300078F0AC014E5F5F4F2417350748F04E0F3C
:100840005F1F50930E0140930D018193919302C05D
:10085000E0E0F0E0CF01DF91CF911F910F9108957B
:10086000CF93DF93009709F481C0FC013297138284
:100870001282A0910F01B0911001109781F4208194
:100880003181820F931F20910D0130910E012817A5
:10089000390751F5F0930E01E0930D0167C0ED01AA
:1008A00020E030E0CE17DF0740F44A815B819E01F3
:1008B00041155105F1F0EA01F5CFD383C2834081A0
:1008C0005181840F951FC817D90759F488819981E0
:1008D000840F951F0296918380838A819B819383E5
:1008E00082832115310529F4F0931001E0930F0163
:1008F0003DC0E901FB83EA8349915991C40FD51F9B
:10090000EC17FD0761F480819181840F951F029699
:10091000E90199838883828193819B838A83E0E0C4
:10092000F0E012968D919C911397009719F0FD01BC
:10093000DC01F7CF8D919C9111979D012E5F3F4F68
:10094000820F931F20910D0130910E012817390756
:1009500069F4309729F41092100110920F0102C02F
:1009600013821282B0930E01A0930D01DF91CF91FB
:100970000895DC0101C06D9341505040E0F70895A7
:04098000F894FFCF19
:060984000000110120003B
:00000001FF
