S01900005465726D5F50726F6A6563745F6D61696E2E7372656339
S11300000C94DD020C946C030C94FA020C94FA0226
S11300100C94FA020C94FA020C94FA020C94FA026C
S11300200C94FA020C94FA020C94FA020C94FA025C
S11300300C94FA020C94FA020C94FA020C94FA024C
S11300400C94FA020C94FA020C94FA020C94FA023C
S11300500C94FA020C94FA020C94FA020C94FA022C
S11300600C94FA020C94FA020C94FA020C94FA021C
S1130070D700CF00C600BB00AE00A10094008700EB
S113008082005175697400706C616365686F6C649B
S113009065723400706C616365686F6C646572339B
S11300A000706C616365686F6C6465723200706CBB
S11300B0616365686F6C6465723100486967687371
S11300C0636F7265730053657474696E677300506F
S11300D06C6179203A29004D61696E206D656E75F9
S11300E000000000000000005F000000070007009F
S11300F0147F147F14242A7F2A122313086462367F
S1130100495522500005030000001C224100004113
S1130110221C00082A1C2A0808083E08080050303F
S113012000000808080808006060000020100804A7
S1130130023E5149453E00427F40004261514946DA
S11301402141454B311814127F1027454545393C50
S11301504A49493001710905033649494936064976
S113016049291E00363600000056360000000814E7
S113017022411414141414412214080002015109D8
S113018006324979413E7E1111117E7F4949493633
S11301903E414141227F4141221C7F494949417FDF
S11301A0090901013E414151327F0808087F00419D
S11301B07F41002040413F017F081422417F40409D
S11301C040407F0204027F7F0408107F3E4141418A
S11301D03E7F090909063E4151215E7F09192946DE
S11301E0464949493101017F01013F4040403F1FD9
S11301F02040201F7F2018207F6314081463030409
S1130200780403615149454300007F4141020408D9
S1130210102041417F00000402010204404040409C
S113022040000102040020545454787F4844443868
S11302303844444420384444487F385454541808BB
S11302407E090102081454543C7F080404780044D5
S11302507D40002040443D00007F10284400417F41
S113026040007C041804787C08040478384444442E
S1130270387C14141408081414187C7C080404082A
S11302804854545420043F4440203C4040207C1CAB
S11302902040201C3C4030403C44281028440C5052
S11302A050503C4464544C44000836410000007FE4
S11302B000000041360800020103020118187E3CC8
S11302C018000000000000000000065F5F06000048
S11302D0000007070007070000147F7F147F7F14C6
S11302E000242E6B6B3A120000466630180C6662CE
S11302F000307A4F5D377A4800040703000000009D
S113030000001C3E63410000000041633E1C0000ED
S113031000082A3E1C1C3E2A0808083E3E08080025
S11303200000A0E0600000000008080808080800B9
S11303300000006060000000006030180C0603013B
S1130340003E7F594D7F3E000042427F7F40400087
S113035000627359496F660000226349497F360081
S113036000181C16137F7F1000276745457D390050
S1130370003C7E4B4979300000036371190F07007C
S113038000367F49497F360000064F49693F1E0009
S11303900000006C6C0000000000A0EC6C00000089
S11303A000081C36634100000014141414141400D3
S11303B000004163361C080000020351590F060077
S11303C0003E7F415D5D1F1E007C7E13137E7C001A
S11303D000417F7F49497F36001C3E6341416322CF
S11303E000417F7F41637F1C00417F7F495D416302
S11303F000417F7F491D0103001C3E63415173721C
S1130400007F7F08087F7F000000417F7F4100005C
S113041000307040417F3F0100417F7F081C7763BB
S113042000417F7F41406070007F7F060C067F7F24
S1130430007F7F060C187F7F001C3E6341633E1CD7
S113044000417F7F49090F06001E3F21717F5E0036
S113045000417F7F19396F460026674D597B320072
S11304600003417F7F410300007F7F40407F7F0086
S1130470001F3F60603F1F00007F7F3018307F7F88
S11304800063771C081C776300074F78784F0700D8
S1130490006773594D47637100007F7F414100003D
S11304A0000103060C183060000041417F7F00000A
S11304B000080C0603060C08008080808080808081
S11304C0800000030704000000207454543C78406A
S11304D000413F7F44447C3800387C44446C28000D
S11304E000307848493F7F4000387C54545C180001
S11304F000487E7F490302000098BCA4A4F87C0451
S113050000417F7F08047C780000447D7D4000002A
S11305100040C484FD7D000000417F7F10386C449E
S11305200000417F7F400000007C7C0C180C7C782C
S1130530007C7C04047C780000387C44447C3800D3
S11305400084FCF8A4243C1800183C24A4F8FC847F
S113055000447C78441C180000485C545474240003
S11305600000043E7F442400003C7C40403C7C402E
S1130570001C3C60603C1C00003C7C6030607C3CA7
S113058000446C3810386C44009CBCA0A0FC7C0077
S1130590004C64745C4C64000008083E77414100E0
S11305A00000000077770000004141773E08080012
S11305B00002030103020301000011241FBECFEF58
S11305C0D4E0DEBFCDBF11E0A0E0B1E0EEE3F3E1A3
S11305D002C005900D92A233B107D9F721E0A2E33E
S11305E0B1E001C01D92AF34B207E1F70E947B0372
S11305F00C949D090C94000082E88FBD89E18EBDA6
S113060085E090E095BD84BD82E090E09BBD8ABD0D
S113061081B3806281BB08950F931F93CF93DF93BF
S1130620D82F109201141092001478948091320102
S11306308823E1F3F89480E094E00E941005182FD9
S113064080E094E00E941005C82F80E094E00E94AE
S11306501005082F80E094E00E941005D13059F075
S113066040F0D23019F0D33039F002C0802F04C0EA
S113067003C0812F01C08C2FDF91CF911F910F9167
S11306800895CF93DF9380E00E940C03C3E3D1E08D
S1130690888381E00E940C03898398811F928F9341
S11306A01F929F9386E091E09F938F930E947B0516
S11306B00F900F900F900F900F900F90DF91CF91AC
S11306C008958BB780648BBF85B7816085BF85B77C
S11306D0826085BF789408951F920F920FB60F928F
S11306E011248F9381E0809332018F910F900FBE7C
S11306F00F901F9018958FE190E00E941C050E94B6
S113070009050E9461030E94FC020E94F2038CE22C
S113071091E09F938F930E947B050E94FC0483E2E7
S113072091E09F938F930E947B050E9441030F9059
S11307300F900F900F90C0E0D0E00FC060E070E029
S1130740CE010E94B1032FEF8FEF9DE12150804035
S11307509040E1F700C000002196CA30D10574F33F
S1130760EACF0F931F93CF93C82F0E948B0460E0AE
S113077070E084E090E00E945E0480E60E94BB0486
S11307800E94690400E010E020C0802F093010F0BE
S113079088EF800FCF5FCA3008F0C0E060E170E0FE
S11307A090E00E945E04EC2FF0E0EE0FFF1FE05992
S11307B0FF4F6591749185E391E00E94290585E3DB
S11307C091E00E94DA040F5F1F4F08301105ECF22C
S11307D0CF911F910F9108958093001008958093F5
S11307E0001208958EEA0E94EC0381EA0E94EC0351
S11307F08AED0E94EC0382E10E94EC0388EC0E94E3
S1130800EC0388EA0E94EC038FE30E94EC0385ED7D
S11308100E94EC0380E80E94EC0381E80E94EC0350
S113082080E50E94EC0389ED0E94EC0381E20E94C2
S1130830EC0380E20E94EC0382E00E94EC038BED67
S11308400E94EC0380E30E94EC038DEA0E94EC0317
S113085080E00E94EC0384EA0E94EC0386EA0E9492
S1130860EC038FEA0E94EC0380E20E94EC0382E036
S11308700E94EC03089580550E94EC030895CF93E1
S1130880DF93EC018F709078992324F40197806FA3
S11308909F6F01960E94EC03CE01DD230CF40F96AA
S11308A0959587959595879595958795959587952C
S11308B0805F0E94EC03DF91CF910895CF93DF9383
S11308C0EB010E943B04CE010E943F04DF91CF91D3
S11308D0089560E070E080E090E00E945E04089576
S11308E00F931F93CF93DF938C0160E070E00E941D
S11308F05E04C0E0D0E004C080E00E94EF032196D3
S1130900C038D105CCF3C8010E943B04DF91CF91DC
S11309101F910F910895CF93DF93C0E0D0E004C0FE
S1130920CE010E9470042196C830D105CCF30E94F8
S11309306904DF91CF9108951F93CF93DF9310EE55
S1130940180FC0E0D0E010C0E12FF0E0EE0FFF1F61
S1130950EE0FFF1FEE0FFF1FEC0FFD1FEF53FD4FB8
S113096084910E94EF032196C830D1056CF3DF9186
S1130970CF911F9108951F93CF93DF93182FC0E059
S1130980D0E011C0812F90E0FC01EE0FFF1FEE0FAD
S1130990FF1FE80FF91FEC0FFD1FEF51FF4F84916C
S11309A00E94EF032196C530D10564F3DF91CF9106
S11309B01F9108950F931F93CF93DF938C01C0E091
S11309C0D0E007C0F801EC0FFD1F80810E949C0459
S11309D02196F80101900020E9F73197E01BF10B13
S11309E0CE17DF0778F3DF91CF911F910F91089510
S11309F088B3806188BB089580EB87BB87B38F7B06
S1130A0087BB0E94F80481ED8DB98DB1837F8DB9C8
S1130A10089585B7806885BF80B7806280BF0895D8
S1130A20905FFC01808108955D9BFECF8CB9089591
S1130A305F9BFECF8CB1089590BD89B988E18AB9D6
S1130A408EE880BD68E175E084E195E00E943005A0
S1130A500895FB01DC0105900D920020E1F7089553
S1130A600F931F93CF93DF93009731F461157105B2
S1130A7019F480E090E03AC08B01EC016EE070E084
S1130A8081E090E00E947207FC01892B91F380E8D9
S1130A9083830115110571F01387028781E883832D
S1130AA08091450190914601892B21F4F0934601F0
S1130AB0E09345012097C9F0D187C0878381826084
S1130AC083838091470190914801892B71F4F093BD
S1130AD04801E09347018091490190914A01892B93
S1130AE021F4F0934A01E0934901CF01DF91CF91C2
S1130AF01F910F910895A0E0B0E0E1E8F5E00C94B7
S1130B007609AE014B5F5F4FFA0161917191AF01BC
S1130B1080914701909148010E949105E2E00C9474
S1130B209209ABE0B0E0E7E9F5E00C9466096C01EA
S1130B307B018A01FC0117821682838181FFCCC16B
S1130B40CE0101963C01F6019381F70193FD859155
S1130B5093FF81917F01882309F4BAC1853239F466
S1130B6093FD859193FF81917F01853229F4B6012C
S1130B7090E00E94CC08E7CF912C212C312CFFE18E
S1130B80F315D8F08B3279F038F4803279F083326F
S1130B90A1F4232D20611DC08D3261F0803369F4EE
S1130BA0232D216016C0832D8260382EE32DE4604E
S1130BB03E2E2AC0F32DF8601DC037FC2DC020ED59
S1130BC0280F2A3040F08E32B9F436FC81C1232D2F
S1130BD02064322E19C036FE06C08AE0989E200D8D
S1130BE01124922E11C0EAE02E9E200D1124222EF3
S1130BF0F32DF0623F2E08C08C3621F4832D8068DB
S1130C00382E02C0883641F4F70193FD859193FF95
S1130C1081917F018111B3CF982F9F7D955493309B
S1130C2028F40C5F1F4F9FE399830DC0833631F086
S1130C30833771F0833509F059C021C0F8018081F0
S1130C4089830E5F1F4F88248394912C530113C012
S1130C502801F2E04F0E511CF801A080B18036FE4D
S1130C6003C0692D70E002C06FEF7FEFC5010E94E1
S1130C70C1084C018201F32DFF773F2E16C02801D5
S1130C8022E0420E511CF801A080B18036FE03C060
S1130C90692D70E002C06FEF7FEFC5010E94AF08BD
S1130CA04C01F32DF0683F2E820133FC1BC0822DD2
S1130CB090E088169906B0F4B60180E290E00E94B4
S1130CC0CC082A94F4CFF50137FC859137FE819145
S1130CD05F01B60190E00E94CC0821102A9421E023
S1130CE0821A91088114910471F7E8C0843611F0D6
S1130CF0893641F5F80137FE07C060817181828130
S1130D0093810C5F1F4F08C060817181072E000C16
S1130D10880B990B0E5F1F4FF32DFF763F2E97FF25
S1130D2009C090958095709561957F4F8F4F9F4F27
S1130D30F0683F2E2AE030E0A3010E940809882EC3
S1130D40861845C0853731F4232D2F7EB22E2AE034
S1130D5030E025C0932D997FB92E8F36C1F018F459
S1130D60883579F0B5C0803719F0883721F0B0C0E4
S1130D70E92FE061BE2EB4FE0DC0FB2DF460BF2E42
S1130D8009C034FE0AC0292F2660B22E06C028E00E
S1130D9030E005C020E130E002C020E132E0F8019B
S1130DA0B7FE07C060817181828193810C5F1F4F00
S1130DB006C06081718180E090E00E5F1F4FA30147
S1130DC00E940809882E8618FB2DFF773F2E36FED9
S1130DD00DC0232D2E7FA22E891458F434FE0BC08F
S1130DE032FC09C0832D8E7EA82E05C0B82CA32CFE
S1130DF003C0B82C01C0B92CA4FE0FC0FE01E80D3D
S1130E00F11D8081803321F49A2D997EA92E09C089
S1130E10A2FE06C0B394B39404C08A2D867809F068
S1130E20B394A3FC11C0A0FE06C0B21488F4280C2D
S1130E30922C9B180EC0B21460F4B60180E290E0CC
S1130E400E94CC08B394F7CFB21418F42B1802C044
S1130E50982C212CA4FE10C0B60180E390E00E94DF
S1130E60CC08A2FE17C0A1FC03C088E790E002C032
S1130E7088E590E0B6010CC08A2D867859F0A1FE71
S1130E8002C08BE201C080E2A7FC8DE2B60190E0D3
S1130E900E94CC08891438F4B60180E390E00E94E3
S1130EA0CC089A94F7CF8A94F301E80DF11D808160
S1130EB0B60190E00E94CC088110F5CF222009F4FD
S1130EC042CEB60180E290E00E94CC082A94F6CF8C
S1130ED0F6018681978102C08FEF9FEF2B96E2E1A6
S1130EE00C9482090F931F93CF93DF93869F800105
S1130EF0879F100D969F100D1124C8010E948E0724
S1130F00EC01009729F0A80160E070E00E94BA08A3
S1130F10CE01DF91CF911F910F9108950F931F93ED
S1130F20CF93DF938230910510F482E090E0E0915A
S1130F304D01F0914E0120E030E0A0E0B0E03097A8
S1130F4019F1408151810281138148175907C8F072
S1130F508417950769F4109731F012960C93129741
S1130F6013961C9327C000934D0110934E0122C089
S1130F702115310519F04217530718F49A01BD01E0
S1130F80EF01DF01F801DBCF21153105F9F0281B52
S1130F90390B2430310580F48A819B8161157105F8
S1130FA021F0FB019383828304C090934E018093CC
S1130FB04D01FE01329644C0FE01E20FF31F8193FE
S1130FC0919322503109398328833AC020914B01EF
S1130FD030914C01232B41F4209102013091030103
S1130FE030934C0120934B01209100013091010179
S1130FF02115310541F42DB73EB7409104015091BC
S11310000501241B350BE0914B01F0914C01E217D3
S1131010F307A0F42E1B3F0B2817390778F0AC0117
S11310204E5F5F4F2417350748F04E0F5F1F5093F4
S11310304C0140934B018193919302C0E0E0F0E0B6
S1131040CF01DF91CF911F910F910895CF93DF933B
S1131050009709F481C0FC01329713821282A09197
S11310604D01B0914E01109781F420813181820F9E
S1131070931F20914B0130914C012817390751F5EA
S1131080F0934C01E0934B0167C0ED0120E030E0A8
S1131090CE17DF0740F44A815B819E01411551055B
S11310A0F1F0EA01F5CFD383C28340815181840FEB
S11310B0951FC817D90759F488819981840F951F02
S11310C00296918380838A819B81938382832115F5
S11310D0310529F4F0934E01E0934D013DC0E9013F
S11310E0FB83EA8349915991C40FD51FEC17FD077F
S11310F061F480819181840F951F0296E90199839F
S11311008883828193819B838A83E0E0F0E0129656
S11311108D919C911397009719F0FD01DC01F7CF95
S11311208D919C9111979D012E5F3F4F820F931FCC
S113113020914B0130914C012817390769F43097FD
S113114029F410924E0110924D0102C013821282B2
S1131150B0934C01A0934B01DF91CF910895FC0112
S11311600590615070400110D8F7809590958E0FCE
S11311709F1F0895DC0101C06D9341505040E0F77A
S11311800895FC016150704001900110D8F78095DA
S113119090958E0F9F1F08950F931F93CF93DF9306
S11311A0FB01238121FD03C08FEF9FEF2CC022FFA1
S11311B016C046815781248135814217530744F470
S11311C0A081B1819D012F5F3F4F318320838C9398
S11311D0268137812F5F3F4F3783268314C08B01CD
S11311E0EC01FB010084F185E02D0995892BE1F6E2
S11311F0D80116968D919C911797019617969C93FA
S11312008E931697CE01DF91CF911F910F91089580
S1131210FA01AA27283051F1203181F1E8946F9323
S11312206E7F6E5F7F4F8F4F9F4FAF4FB1E03ED0C9
S1131230B4E03CD0670F781F891F9A1FA11D680F67
S1131240791F8A1F911DA11D6A0F711D811D911D9A
S1131250A11D20D009F468943F912AE0269F11240F
S11312603019305D3193DEF6CF010895462F477073
S1131270405D4193B3E00FD0C9F7F6CF462F4F70CE
S1131280405D4A3318F0495D31FD4052419302D02C
S1131290A9F7EACFB4E0A6959795879577956795D2
S11312A0BA95C9F700976105710508959B01AC01D2
S11312B00A2E06945795479537952795BA95C9F7F9
S11312C0620F731F841F951FA01D08952F923F92D4
S11312D04F925F926F927F928F929F92AF92BF9242
S11312E0CF92DF92EF92FF920F931F93CF93DF93EE
S11312F0CDB7DEB7CA1BDB0B0FB6F894DEBF0FBE4B
S1131300CDBF09942A88398848885F846E847D8497
S11313108C849B84AA84B984C884DF80EE80FD8099
S11313200C811B81AA81B981CE0FD11D0FB6F8940F
S1111330DEBF0FBECDBFED010895F894FFCFD0
S113133E00004F01200078206F66667365743A20B2
S113134E25642C2079206F66667365743A202564B3
S113135E0A0D006D656E20696B6B65206865720AF7
S105136E0D006C
S9030000FC
