S01900005465726D5F50726F6A6563745F6D61696E2E7372656339
S11300000C94ED010C947C020C940A020C940A02E8
S11300100C940A020C940A020C940A020C940A022C
S11300200C940A020C940A020C940A020C940A021C
S11300300C940A020C940A020C940A020C940A020C
S11300400C940A020C940A020C940A020C940A02FC
S11300500C940A020C940A020C940A020C940A02EC
S11300600C940A020C940A020C940A020C940A02DC
S1130070D700CF00C600BB00AE00A10094008700EB
S113008082005175697400706C616365686F6C649B
S113009065723400706C616365686F6C646572339B
S11300A000706C616365686F6C6465723200706CBB
S11300B0616365686F6C6465723100486967687371
S11300C0636F7265730053657474696E677300506F
S11300D06C6179203A29004D61696E206D656E75F9
S11300E000000000000000000000065F5F06000042
S11300F0000007070007070000147F7F147F7F14A8
S113010000242E6B6B3A120000466630180C6662AF
S113011000307A4F5D377A4800040703000000007E
S113012000001C3E63410000000041633E1C0000CF
S113013000082A3E1C1C3E2A0808083E3E08080007
S11301400000A0E06000000000080808080808009B
S11301500000006060000000006030180C0603011D
S1130160003E7F594D7F3E000042427F7F40400069
S113017000627359496F660000226349497F360063
S113018000181C16137F7F1000276745457D390032
S1130190003C7E4B4979300000036371190F07005E
S11301A000367F49497F360000064F49693F1E00EB
S11301B00000006C6C0000000000A0EC6C0000006B
S11301C000081C36634100000014141414141400B5
S11301D000004163361C080000020351590F060059
S11301E0003E7F415D5D1F1E007C7E13137E7C00FC
S11301F000417F7F49497F36001C3E6341416322B1
S113020000417F7F41637F1C00417F7F495D4163E3
S113021000417F7F491D0103001C3E6341517372FD
S1130220007F7F08087F7F000000417F7F4100003E
S113023000307040417F3F0100417F7F081C77639D
S113024000417F7F41406070007F7F060C067F7F06
S1130250007F7F060C187F7F001C3E6341633E1CB9
S113026000417F7F49090F06001E3F21717F5E0018
S113027000417F7F19396F460026674D597B320054
S11302800003417F7F410300007F7F40407F7F0068
S1130290001F3F60603F1F00007F7F3018307F7F6A
S11302A00063771C081C776300074F78784F0700BA
S11302B0006773594D47637100007F7F414100001F
S11302C0000103060C183060000041417F7F0000EC
S11302D000080C0603060C08008080808080808063
S11302E0800000030704000000207454543C78404C
S11302F000413F7F44447C3800387C44446C2800EF
S113030000307848493F7F4000387C54545C1800E2
S113031000487E7F490302000098BCA4A4F87C0432
S113032000417F7F08047C780000447D7D4000000C
S11303300040C484FD7D000000417F7F10386C4480
S11303400000417F7F400000007C7C0C180C7C780E
S1130350007C7C04047C780000387C44447C3800B5
S11303600084FCF8A4243C1800183C24A4F8FC8461
S113037000447C78441C180000485C5454742400E5
S11303800000043E7F442400003C7C40403C7C4010
S1130390001C3C60603C1C00003C7C6030607C3C89
S11303A000446C3810386C44009CBCA0A0FC7C0059
S11303B0004C64745C4C64000008083E77414100C2
S11303C00000000077770000004141773E080800F4
S11303D00002030103020301000011241FBECFEF3A
S11303E0D4E0DEBFCDBF11E0A0E0B1E0E6E3F1E18F
S11303F002C005900D92A433B107D9F721E0A4E31C
S1130400B1E001C01D92A135B207E1F70E948B0251
S11304100C9499080C94000082E88FBD89E18EBD8C
S113042085E090E095BD84BD82E090E09BBD8ABDEF
S113043081B3806281BB08950F931F93CF93DF93A1
S1130440D82F1092011410920014789480913401E2
S11304508823E1F3F89480E094E00E940C04182FC0
S113046080E094E00E940C04C82F80E094E00E9495
S11304700C04082F80E094E00E940C04D13059F061
S113048040F0D23019F0D33039F002C0802F04C0CC
S113049003C0812F01C08C2FDF91CF911F910F9149
S11304A00895CF93DF9380E00E941C02C5E3D1E05E
S11304B0888381E00E941C02898398811F928F9314
S11304C01F929F9387E091E09F938F930E947704FC
S11304D00F900F900F900F900F900F90DF91CF918E
S11304E008958BB780648BBF85B7816085BF85B75E
S11304F0826085BF789408951F920F920FB60F9271
S113050011248F9381E0809334018F910F900FBE5B
S11305100F901F9018958FE190E00E9418040E949C
S113052005040E9471020E940C020E940D038DE2D8
S113053091E09F938F930E9477040E94F80384E2D2
S113054091E09F938F930E9477040E9451020F9031
S11305500F900F900F90C0E0D0E00FC060E070E00B
S1130560CE010E94C1022FEF8FEF9DE12150804008
S11305709040E1F700C000002196CA30D10574F321
S1130580EACF0F931F93CF9390E004976AF42091DE
S1130590060130E0AC01992324F444275527481B75
S11305A0590BC901841B950BC82F0E94A60360E058
S11305B070E084E090E00E9479038EE30E94B70328
S11305C00E94840300E010E01BC0C93008F0C0E0C2
S11305D060E170E0C8010E947903EC2FF0E0EE0FB7
S11305E0FF1FE059FF4F6591749187E391E00E94EA
S11305F0250487E391E00E94D603CF5F0F5F1F4F6E
S11306000830110514F3CF911F910F910895809331
S1130610001008958093001208958EEA0E94070343
S113062081EA0E9407038AED0E94070382E10E9487
S1130630070388EC0E94070388EA0E9407038FE3FC
S11306400E94070385ED0E94070380E80E940703C8
S113065081E80E94070380E50E94070389ED0E9458
S1130660070381E20E94070380E20E94070382E0FD
S11306700E9407038BED0E94070380E30E94070397
S11306808DEA0E94070380E00E94070384EA0E9427
S1130690070386EA0E9407038FEA0E94070380E2A9
S11306A00E94070382E00E940703089580550E9478
S11306B007030895CF93DF93EC018F70907899230B
S11306C024F40197806F9F6F01960E940703CE0167
S11306D0DD230CF40F9695958795959587959595BB
S11306E0879595958795805F0E940703DF91CF9149
S11306F00895CF93DF93EB010E945603CE010E942D
S11307005A03DF91CF91089560E070E080E090E0BB
S11307100E94790308950F931F93CF93DF938C0165
S113072060E070E00E947903C0E0D0E004C080E0A3
S11307300E940A032196C038D105CCF3C8010E9457
S11307405603DF91CF911F910F910895CF93DF93BB
S1130750C0E0D0E004C0CE010E948B032196C830D3
S1130760D105CCF30E948403DF91CF9108951F93A8
S1130770CF93DF9310EE180FC0E0D0E010C0E12F4C
S1130780F0E0EE0FFF1FEE0FFF1FEE0FFF1FEC0F49
S1130790FD1FEF51FF4F84910E940A032196C83038
S11307A0D1056CF3DF91CF911F9108950F931F939F
S11307B0CF93DF938C01C0E0D0E007C0F801EC0FC9
S11307C0FD1F80810E94B7032196F801019000204B
S11307D0E9F73197E01BF10BCE17DF0778F3DF91D0
S11307E0CF911F910F91089588B3806188BB0895BC
S11307F080EB87BB87B38F7B87BB0E94F40381EDBB
S11308008DB98DB1837F8DB9089585B7806885BF13
S113081080B7806280BF0895905FFC018081089555
S11308205D9BFECF8CB908955F9BFECF8CB108957C
S113083090BD89B988E18AB98EE880BD64E174E02D
S113084080E194E00E942C040895FB01DC010590F2
S11308500D920020E1F708950F931F93CF93DF9338
S1130860009731F46115710519F480E090E03AC005
S11308708B01EC016EE070E081E090E00E946E0676
S1130880FC01892B91F380E883830115110571F034
S11308901387028781E883838091470190914801FF
S11308A0892B21F4F0934801E09347012097C9F084
S11308B0D187C0878381826083838091490190912D
S11308C04A01892B71F4F0934A01E0934901809124
S11308D04B0190914C01892B21F4F0934C01E0934E
S11308E04B01CF01DF91CF911F910F910895A0E0AB
S11308F0B0E0EDE7F4E00C947208AE014B5F5F4F9B
S1130900FA0161917191AF018091490190914A017D
S11309100E948D04E2E00C948E08ABE0B0E0E3E9C1
S1130920F4E00C9462086C017B018A01FC011782DB
S11309301682838181FFCCC1CE0101963C01F60170
S11309409381F70193FD859193FF81917F01882322
S113095009F4BAC1853239F493FD859193FF8191ED
S11309607F01853229F4B60190E00E94C807E7CFE1
S1130970912C212C312CFFE1F315D8F08B3279F036
S113098038F4803279F08332A1F4232D20611DC024
S11309908D3261F0803369F4232D216016C0832DDC
S11309A08260382EE32DE4603E2E2AC0F32DF860D9
S11309B01DC037FC2DC020ED280F2A3040F08E32A8
S11309C0B9F436FC81C1232D2064322E19C036FEC1
S11309D006C08AE0989E200D1124922E11C0EAE0F0
S11309E02E9E200D1124222EF32DF0623F2E08C0DE
S11309F08C3621F4832D8068382E02C0883641F469
S1130A00F70193FD859193FF81917F018111B3CF0C
S1130A10982F9F7D9554933028F40C5F1F4F9FE3CC
S1130A2099830DC0833631F0833771F0833509F033
S1130A3059C021C0F801808189830E5F1F4F88242B
S1130A408394912C530113C02801F2E04F0E511CE2
S1130A50F801A080B18036FE03C0692D70E002C0A9
S1130A606FEF7FEFC5010E94BD074C018201F32D9A
S1130A70FF773F2E16C0280122E0420E511CF801D8
S1130A80A080B18036FE03C0692D70E002C06FEF14
S1130A907FEFC5010E94AB074C01F32DF0683F2E98
S1130AA0820133FC1BC0822D90E088169906B0F4B5
S1130AB0B60180E290E00E94C8072A94F4CFF501C1
S1130AC037FC859137FE81915F01B60190E00E9469
S1130AD0C80721102A9421E0821A910881149104F4
S1130AE071F7E8C0843611F0893641F5F80137FE14
S1130AF007C060817181828193810C5F1F4F08C0A0
S1130B0060817181072E000C880B990B0E5F1F4FBB
S1130B10F32DFF763F2E97FF09C090958095709531
S1130B2061957F4F8F4F9F4FF0683F2E2AE030E052
S1130B30A3010E940408882E861845C0853731F425
S1130B40232D2F7EB22E2AE030E025C0932D997FED
S1130B50B92E8F36C1F018F4883579F0B5C08037D6
S1130B6019F0883721F0B0C0E92FE061BE2EB4FE41
S1130B700DC0FB2DF460BF2E09C034FE0AC0292F1E
S1130B802660B22E06C028E030E005C020E130E047
S1130B9002C020E132E0F801B7FE07C06081718134
S1130BA0828193810C5F1F4F06C06081718180E058
S1130BB090E00E5F1F4FA3010E940408882E861840
S1130BC0FB2DFF773F2E36FE0DC0232D2E7FA22E48
S1130BD0891458F434FE0BC032FC09C0832D8E7E78
S1130BE0A82E05C0B82CA32C03C0B82C01C0B92C66
S1130BF0A4FE0FC0FE01E80DF11D8081803321F4B5
S1130C009A2D997EA92E09C0A2FE06C0B394B3946E
S1130C1004C08A2D867809F0B394A3FC11C0A0FE09
S1130C2006C0B21488F4280C922C9B180EC0B2147F
S1130C3060F4B60180E290E00E94C807B394F7CF55
S1130C40B21418F42B1802C0982C212CA4FE10C046
S1130C50B60180E390E00E94C807A2FE17C0A1FC81
S1130C6003C088E790E002C088E590E0B6010CC0BC
S1130C708A2D867859F0A1FE02C08BE201C080E281
S1130C80A7FC8DE2B60190E00E94C807891438F4ED
S1130C90B60180E390E00E94C8079A94F7CF8A9443
S1130CA0F301E80DF11D8081B60190E00E94C807B0
S1130CB08110F5CF222009F442CEB60180E290E003
S1130CC00E94C8072A94F6CFF6018681978102C054
S1130CD08FEF9FEF2B96E2E10C947E080F931F9306
S1130CE0CF93DF93869F8001879F100D969F100DF1
S1130CF01124C8010E948A06EC01009729F0A8017A
S1130D0060E070E00E94B607CE01DF91CF911F91A1
S1130D100F9108950F931F93CF93DF938230910522
S1130D2010F482E090E0E0914F01F091500120E056
S1130D3030E0A0E0B0E0309719F1408151810281A8
S1130D40138148175907C8F08417950769F4109759
S1130D5031F012960C93129713961C9327C00093AC
S1130D604F011093500122C02115310519F042178B
S1130D70530718F49A01BD01EF01DF01F801DBCF3D
S1130D8021153105F9F0281B390B2430310580F485
S1130D908A819B816115710521F0FB019383828314
S1130DA004C09093500180934F01FE01329644C0D9
S1130DB0FE01E20FF31F819391932250310939838D
S1130DC028833AC020914D0130914E01232B41F4E8
S1130DD0209102013091030130934E0120934D0183
S1130DE020910001309101012115310541F42DB705
S1130DF03EB74091040150910501241B350BE0914D
S1130E004D01F0914E01E217F307A0F42E1B3F0BA6
S1130E102817390778F0AC014E5F5F4F2417350768
S1130E2048F04E0F5F1F50934E0140934D01819344
S1130E30919302C0E0E0F0E0CF01DF91CF911F91E8
S1130E400F910895CF93DF93009709F481C0FC01BB
S1130E50329713821282A0914F01B09150011097E2
S1130E6081F420813181820F931F20914D013091B3
S1130E704E012817390751F5F0934E01E0934D01C7
S1130E8067C0ED0120E030E0CE17DF0740F44A816F
S1130E905B819E0141155105F1F0EA01F5CFD38341
S1130EA0C28340815181840F951FC817D90759F413
S1130EB088819981840F951F0296918380838A810A
S1130EC09B81938382832115310529F4F09350018A
S1130ED0E0934F013DC0E901FB83EA8349915991B5
S1130EE0C40FD51FEC17FD0761F480819181840F35
S1130EF0951F0296E90199838883828193819B835C
S1130F008A83E0E0F0E012968D919C91139700970C
S1130F1019F0FD01DC01F7CF8D919C9111979D0192
S1130F202E5F3F4F820F931F20914D0130914E0150
S1130F302817390769F4309729F410925001109258
S1130F404F0102C013821282B0934E01A0934D014F
S1130F50DF91CF910895FC0105906150704001101C
S1130F60D8F7809590958E0F9F1F0895DC0101C0DE
S1130F706D9341505040E0F70895FC01615070407A
S1130F8001900110D8F7809590958E0F9F1F0895BA
S1130F900F931F93CF93DF93FB01238121FD03C0A4
S1130FA08FEF9FEF2CC022FF16C04681578124810A
S1130FB035814217530744F4A081B1819D012F5F0D
S1130FC03F4F318320838C93268137812F5F3F4F9E
S1130FD03783268314C08B01EC01FB010084F18567
S1130FE0E02D0995892BE1F6D80116968D919C91F7
S1130FF01797019617969C938E931697CE01DF91BF
S1131000CF911F910F910895FA01AA27283051F129
S1131010203181F1E8946F936E7F6E5F7F4F8F4F25
S11310209F4FAF4FB1E03ED0B4E03CD0670F781F84
S1131030891F9A1FA11D680F791F8A1F911DA11D69
S11310406A0F711D811D911DA11D20D009F46894A2
S11310503F912AE0269F11243019305D3193DEF64A
S1131060CF010895462F4770405D4193B3E00FD000
S1131070C9F7F6CF462F4F70405D4A3318F0495DEB
S113108031FD4052419302D0A9F7EACFB4E0A695CE
S11310909795879577956795BA95C9F700976105F0
S11310A0710508959B01AC010A2E06945795479546
S11310B037952795BA95C9F7620F731F841F951F3B
S11310C0A01D08952F923F924F925F926F927F924C
S11310D08F929F92AF92BF92CF92DF92EF92FF9244
S11310E00F931F93CF93DF93CDB7DEB7CA1BDB0BF0
S11310F00FB6F894DEBF0FBECDBF09942A88398895
S113110048885F846E847D848C849B84AA84B9849B
S1131110C884DF80EE80FD800C811B81AA81B981A7
S1131120CE0FD11D0FB6F894DEBF0FBECDBFED01BB
S10911300895F894FFCFBE
S11311360000510120000978206F66667365743AD1
S11311462025642C2079206F66667365743A202501
S1131156640A0D006D656E20696B6B6520686572A7
S10711660A0D00006A
S9030000FC
